:100000000C9443000C946B000C946B000C946B00EC
:100010000C946B000C946B000C946B000C946B00B4
:100020000C946B000C945B110C9484110C94AD1126
:100030000C9451120C94D6110C94FF110C942812AC
:100040000C94E0100C9409110C9432110C946B0078
:100050000C9434090C94E7060C946B000C946B0020
:100060000C946B000C946B000C946B000C946B0064
:100070000C9409090C9435070C946B0002013E03A3
:100080005F09DE136E0311241FBECFEFD0E1DEBF88
:10009000CDBF11E0A0E0B1E0E4E0F2E302C00590E2
:1000A0000D92A43AB107D9F713E0A4EAB1E001C078
:1000B0001D92A033B107E1F710E0C4E8D0E004C01E
:1000C0002297FE010E946316CE37D107C9F70E941E
:1000D0002E060C94F5180C9400000F931F93CF93E9
:1000E000DF93EB018A0142E0BC018DE00E946909C7
:1000F00042E0BE018CE00E94690942E0B8018AE05A
:10010000DF91CF911F910F910C946909CF92DF92EB
:10011000EF92FF920F931F93CF93DF93CDB7DEB78C
:100120002E970FB6F894DEBF0FBECDBF88E10E94B8
:100130001505BC01882777FD8095982F0E94F11442
:1001400023E333E343E550E40E94A51520E030E0CB
:1001500040E85AE30E94A515FB01462F5F2F682F48
:10016000792F4093A4015093A5016093A601709349
:10017000A70122E030E08CE592E00E94E80E2AE937
:1001800039E949E95FE36091A4017091A50180918B
:10019000A6019091A7010E945214181614F0479AD4
:1001A00001C0479886EB91E00E9498038823C9F02C
:1001B000682FCE0108960E94F30FBE01685F7F4F43
:1001C00084ED91E00E943810CE0108960E94FC0E4A
:1001D00064ED71E08CE592E00E94220D81E0809355
:1001E000A9018091B401882359F164E271E0CE0144
:1001F00008960E946D0FBE01685F7F4F84ED91E00D
:100200000E949710182FCE0108960E94FC0E112311
:10021000B9F040E050E06FEF70E08FEF90E00E94A7
:100220006D001092B40166E271E08CE592E00E94EC
:10023000360D42986AE271E084ED91E00E94AB0FC6
:1002400069E271E0CE0108960E946D0FBE01685F01
:100250007F4F84ED91E00E949710882361F011E0B8
:100260002091D8013091D9018091DF019091E00176
:100270008217930708F410E0CE0108960E94FC0E46
:10028000112361F06AE271E084ED91E00E94AB0F0E
:100290006BE271E08CE592E00E94360D2091D8016E
:1002A0003091D9018091DF019091E0012817390741
:1002B00009F066C023C04FEF50E060E070E08FEFC0
:1002C00090E00E946D00429AC092B4018091A90111
:1002D000882341F06EE271E08CE592E00E94360DD9
:1002E0001092A9011092AE01EE24E394F12C0F5F5D
:1002F0001F4FCE0108960E94FC0E08C0E12CF12C85
:1003000000E010E087E0D82ECC24C39480911D013A
:1003100090911E010817190724F0FF2009F447C027
:1003200004C0EE2009F44FC1F8CF6091AE016F5FB9
:100330006093AE014AE0CE0108960E94C50F61E3CA
:1003400071E0CE0101960E946D0FBE01685F7F4F84
:10035000CE0101960E943F10BC018CE592E00E9404
:10036000220DCE0101960E94FC0ECE0108960E943D
:10037000FC0E6AE271E084ED91E00E94AB0F17C0C1
:1003800082179307A0F44FEF50E060E070E08FEF2A
:1003900090E00E946D008091A901882341F06EE2F7
:1003A00071E08CE592E00E94360D1092A9018091D7
:1003B000AE018330A8F14FEF50E06FEF70E080E0C6
:1003C00090E00E946D006AE271E084ED91E00E948D
:1003D000AB0F1092AE0163E371E08CE592E00E94F6
:1003E000360D20E030E0A90166E071E080E10E9476
:1003F0002F0B68EE73E080E090E00E948C0580E1B6
:100400000E94FE0A40E050E06FEF70E08FEF90E056
:100410000E946D0066E371E08CE592E00E94360D6B
:1004200064E670E080E090E00E948C058091B3016A
:10043000811122C0339B82C00E947A056093AF0174
:100440007093B0018093B1019093B20111E01093C9
:10045000B3014FEF50E060E070E08FEF90E00E945A
:100460006D001093B4011092AE0169E371E08CE568
:1004700092E00E94360D62C0339B4CC00E947A0508
:100480000091AF011091B0012091B1013091B20102
:10049000601B710B820B930B6838734181059105CA
:1004A00008F44CC04FEF50E06FEF70E080E090E058
:1004B0000E946D0020E030E0A90167E174E080E176
:1004C0000E942F0B64EF71E080E090E00E948C05A9
:1004D00080E10E94FE0A20E030E0A9016BE072E0BA
:1004E00080E10E942F0B64EF71E080E090E00E94B9
:1004F0008C0580E10E94FE0A8091A80181111EC036
:100500006CE371E08CE592E00E94360D81E080930F
:10051000A80114C040E050E06FEF70E08FEF90E072
:100520000E946D001092B4011092B3016FE371E06C
:100530008CE592E00E94360D1092A80164E670E00E
:1005400080E090E00E948C05809106010E94DC050D
:10055000082F10E01093AB010093AA0101301105A0
:10056000B1F461E0809108010E9400068091AC0125
:100570009091AD01892B01F562E471E08CE592E088
:100580000E94360D1093AD010093AC0115C060E0E0
:10059000809108010E9400068091AC019091AD010C
:1005A000019751F465E471E08CE592E00E94360D0C
:1005B0001092AD011092AC0164E670E080E090E032
:1005C0000E948C0517C0D09EB001D19E700D1124E1
:1005D00065527E4FCE0108960E94A10FBE01685F52
:1005E0007F4F84ED91E00E948610811164CEFF243C
:1005F000F3947DCE2E960FB6F894DEBF0FBECDBF1E
:10060000DF91CF911F910F91FF90EF90DF90CF90EE
:100610000895EF920F93E12C01E028E040E855E2C5
:1006200060E070E08CE592E00E9407083F9A08982D
:100630006AE271E084ED91E00E94AB0F1092B40188
:100640001092AE011092B5011092B3013D9A3C9AFE
:100650003A9A3B9840E050E06FEF70E08FEF90E007
:100660000E946D0061E0809108010E94AE0560E08B
:10067000809106010F91EF900C94AE05EF920F93CD
:1006800068E471E08BED91E00E946D0F6DE471E024
:1006900082EE91E00E946D0F62E571E089EE91E0DB
:1006A0000E946D0F67E571E080EF91E00E946D0F91
:1006B0006AE271E084ED91E00E946D0F93E0E92E13
:1006C00004E02AE031E04DE051E061E171E086EBC9
:1006D00091E00E94E2040F91EF90089584ED91E083
:1006E0000E94FC0E80EF91E00E94FC0E89EE91E0EA
:1006F0000E94FC0E82EE91E00E94FC0E8BED91E0D8
:100700000C94FC0EDC0118968D919C91199786171C
:10071000970769F019967C936E9318975C96ED9104
:10072000FC915D97309719F01A968C910994089571
:100730004F925F926F927F92AF92BF92CF92DF9271
:10074000EF92FF920F931F93CF93DF93EC01A12CB5
:10075000A8C00A2D10E0EC81FD81E00FF11F60E0E0
:1007600080810E940006B12C68018EC0EB2CF12C18
:100770008F81E881F981EC0DFD1DB89EE00DF11D22
:1007800011249A85808198133CC00E947A054E847A
:100790005F846888798864197509860997094A8C85
:1007A0005B8C612C712C641575058605970550F0DE
:1007B000EA81FB81EE0DFF1D80810E94DC0588230C
:1007C00009F498C00E947A054E845F84688879880D
:1007D0006419750986099709488C598C612C712C0C
:1007E000641575058605970508F493C0EA81FB81B9
:1007F000EB0DF11D80810E94DC05813009F089C07C
:100800007FC00E947A054E845F8468887988641965
:10081000750986099709488C598C612C712C6415CF
:1008200075058605970578F1EA81FB81EE0DFF1DC0
:1008300080810E94DC05811126C0EC81FD81E00FE2
:10084000F11F61E080810E9400062F812E9DC00172
:100850002F9D900D1124E881F981EC0DFD1DE80F0D
:10086000F91FF0808E859F85A889B9898A8B9B8B1B
:10087000AC8BBD8B0E947A056E877F87888B998BA6
:10088000F11015C005C0B3948E81B81608F46ECF70
:10089000EC81FD81E00FF11F61E080810E94000684
:1008A000A3948F81A81608F454CF80E040C08B85B4
:1008B000F81239C00E947A050A891B892C893D8962
:1008C000601B710B820B930B0E891F8920E030E0B7
:1008D000061717072807390710F525C081E090E0B3
:1008E0009D878C87FA8661E070E0CE010E948203CA
:1008F0008A851DC063E070E0CE010E94820362CF52
:1009000062E070E0CE010E9482038A858B871A869E
:10091000BFCF88859985039709F0B5CFB9CF8C856E
:100920009D850196DDCF8A85F812D8CFBECFDF91A5
:10093000CF911F910F91FF90EF90DF90CF90BF90DC
:10094000AF907F906F905F904F900895FF920F93BC
:100950001F93CF93DF93EC01F12C13C00F2D10E008
:10096000EA81FB81E00FF11F60E080810E94AE050B
:10097000EA81FB81E00FF11F61E080810E940006A7
:10098000F3948E81F81650F3F12C13C00F2D10E064
:10099000EC81FD81E00FF11F61E080810E94AE05D6
:1009A000EC81FD81E00FF11F61E080810E94000673
:1009B000F3948F81F81650F3DF91CF911F910F912F
:1009C000FF900895EF920F93FC0153834283358388
:1009D00024830683E7827183608316861786108AD4
:1009E000118A128A138A148A158A8CE291E0978BF5
:1009F000868B82E390E0918F808F88EE93E0938FD7
:100A0000828F158E148E1286138611861086158697
:100A10001486CF010F91EF900C94A60480E480938C
:100A20007C0087E880937A000895CF93DF931F922C
:100A3000CDB7DEB790911F01913031F489830E94C8
:100A40000E0510921F01898187702091200140E4DA
:100A5000249F90011124822B80937C0080917A0046
:100A6000806480937A0080917A0086FDFCCF20918B
:100A7000780030917900932F80E0FC01E22B9F01F8
:100A8000C9010F90DF91CF9108958091F801909165
:100A9000F901A091FA01B091FB013091F701232FE8
:100AA0002D5F2D3720F40196A11DB11D05C0232F08
:100AB0002A570296A11DB11D2093F7018093F801DA
:100AC0009093F901A093FA01B093FB018091FC018E
:100AD0009091FD01A091FE01B091FF010196A11D31
:100AE000B11D8093FC019093FD01A093FE01B09392
:100AF000FF0108950F931F938FB7F8940091F801A9
:100B00001091F9012091FA013091FB018FBFB801DA
:100B1000C9011F910F9108958F929F92AF92BF923A
:100B2000CF92DF92EF92FF926B017C010E947A05D7
:100B30004B015C010E947A05681979098A099B09B1
:100B40006C157D058E059F05A8F3FF90EF90DF9053
:100B5000CF90BF90AF909F908F900895982F9770EF
:100B600021E030E0092E01C0220F0A94EAF78695B1
:100B70008695869581F0813089F0823091F08330BE
:100B8000D1F412C080812095822302C08081822B03
:100B900080839FBF0895EAE2F0E008C0E7E2F0E05A
:100BA00005C0E4E2F0E002C0E1E2F0E09FB7F894B3
:100BB000662341F3EBCF0895982F977021E030E042
:100BC00001C0220F9A95EAF786958695869539F0A9
:100BD000813041F0823049F0833051F00895E9E2EC
:100BE000F0E008C0E6E2F0E005C0E3E2F0E002C0B9
:100BF000E0E2F0E09081922381E009F480E0089542
:100C0000982F977021E030E0092E01C0220F0A943E
:100C1000EAF786958695869581F0813089F0823055
:100C200091F08330D1F412C080812095822302C0DC
:100C30008081822B80839FBF0895EBE2F0E008C0A3
:100C4000E8E2F0E005C0E5E2F0E002C0E2E2F0E058
:100C50009FB7F894662341F3EBCF08950E94B81034
:100C60000E9409030E948600FDCFFC012089318982
:100C7000C9010895DC0150962D913C915197232B89
:100C800049F05496ED91FC915597E80FF91F26898C
:100C900030E002C02FEF3FEFC9010895FC01118A37
:100CA000108A158A148A138A128A0895FC012481F5
:100CB0003581C9010895FC0124813581C901089558
:100CC000FC0180899189892BD1F03FB7F894808904
:100CD00091890197918B808B84899589DF01A80F79
:100CE000B91F56962C910196803291051CF4958B74
:100CF000848B02C0158A148A3FBF30E002C02FEFF8
:100D00003FEFC9010895EF92FF921F93CF93DF93B6
:100D10001F92CDB7DEB77C01D701DA968D919C91F9
:100D2000DB974097C8F71FB7F894D696ED91FC91E2
:100D3000D7970190F081E02DC701C6966983099588
:100D400069814097C8F4F70182AD93AD019693AFE6
:100D500082AF84AD95ADE80FF91FE05CFF4F608373
:100D60000196D701DD969C938E93DC97409724F0F3
:100D7000DD961C921E92DC97F701EA5AFF4F019014
:100D8000F081E02D8081806280831FBF81E090E050
:100D90000F90DF91CF911F91FF90EF900895665FC4
:100DA0007F4F680F791FCB010895665F7F4F680FF3
:100DB000791FCB010895665F7F4F680F791FCB01C4
:100DC0000895665F7F4F680F791FCB0108951F92CA
:100DD0000F920FB60F9211242F938F939F93AF937F
:100DE000BF93EF93FF938091960290919702892B86
:100DF00021F1E091B602F091B702809196029091B4
:100E000097020197909397028093960280919A029D
:100E100090919B02DC01AE56BD4F1A962C91019623
:100E2000803191052CF490939B0280939A0204C028
:100E300010929B0210929A022083809196029091C8
:100E40009702892B31F4E091B202F091B30288E964
:100E50008083FF91EF91BF91AF919F918F912F91DF
:100E60000F900FBE0F901F9018951F920F920FB604
:100E70000F9211242F938F939F93AF93BF93EF9370
:100E8000FF9380913A0290913B02892B21F1E091EE
:100E90005A02F0915B0280913A0290913B020197D5
:100EA00090933B0280933A0280913E0290913F02E0
:100EB000DC01AA5CBD4F1A962C91019680319105F8
:100EC0002CF490933F0280933E0204C010923F02A4
:100ED00010923E02208380913A0290913B02892B2E
:100EE00031F4E0915602F091570288E98083FF9136
:100EF000EF91BF91AF919F918F912F910F900FBE66
:100F00000F901F901895FC01262F1382128248EE35
:100F100053E060E070E0448355836683778380E626
:100F200091E09183808380E791E09587848780E2D8
:100F300090E097878687118A108A158A148A138A07
:100F4000128A8AE791E097AB86AB80E190E091AF9F
:100F500080AF13AE12AE17AE16AE15AE14AE22238E
:100F600021F0213009F052C028C0DF01A05BBF4F43
:100F700085EC90E08D939C93DF01AE5ABF4F84ECDB
:100F800090E08D939C93DF01AC5ABF4F80EC90E0D2
:100F90008D939C93DF01AA5ABF4F81EC90E08D9313
:100FA0009C93DF01A85ABF4F82EC90E08D939C93F5
:100FB000E65AFF4F86EC90E027C0DF01A05BBF4FF1
:100FC0008DEC90E08D939C93DF01AE5ABF4F8CEC7B
:100FD00090E08D939C93DF01AC5ABF4F88EC90E07A
:100FE0008D939C93DF01AA5ABF4F89EC90E08D93BB
:100FF0009C93DF01A85ABF4F8AEC90E08D939C939D
:10100000E65AFF4F8EEC90E09183808308953F92E3
:101010004F925F926F927F928F929F92AF92BF9208
:10102000CF92DF92EF92FF920F931F93CF93DF93B4
:10103000EC014A015B01122F3E2C60E072E18AE76D
:1010400090E0A50194010E94171669017A0184E0DD
:10105000C80ED11CE11CF11C83E0F694E794D794F0
:10106000C7948A95D1F760E074E284EF90E0A5011F
:1010700094010E94171629013A0194E0490E511C6F
:10108000611C711C93E076946794579447949A95E9
:10109000D1F7A30192014427552760E874E88EE157
:1010A00090E00E9439165901A818B908B7FE03C08C
:1010B000B194A194B108A70196014427552760E493
:1010C00072E48FE090E00E9439162819390937FF41
:1010D00003C0319521953109FE01EC5AFF4F019073
:1010E000F081E02DA216B3063CF482E08083620119
:1010F00081E0C81AD10804C0108291E0C91AD10851
:101100001630C1F018F4153099F405C0173029F0E5
:10111000193071F404C080E00EC084E00CC0FE0100
:10112000EA5AFF4F0190F081E02D80818460808336
:1011300086E001C082E0023009F4886091E039164F
:1011400021F092E0391204C002C0806301C08062C5
:10115000FE01E85AFF4F0190F081E02D8083FE01EF
:10116000E05BFF4F0190F081E02DD082FE01EE5A4E
:10117000FF4F0190F081E02DC082CA5ADF4FE88115
:10118000F98188E98083DF91CF911F910F91FF90C2
:10119000EF90DF90CF90BF90AF909F908F907F9017
:1011A0006F905F904F903F9008950F931F93CF9350
:1011B000DF931F92CDB7DEB78C01DC01ED91FC917E
:1011C0000190F081E02D6983099569818097D0F4C1
:1011D000F801848195810196958384838681978126
:1011E000E80FF91F628701968032910534F4D80127
:1011F00017969C938E93169703C0F8011782168258
:1012000081E001C080E00F90DF91CF911F910F919D
:1012100008951F920F920FB60F9211242F933F93B0
:101220004F935F936F937F938F939F93AF93BF93EE
:10123000EF93FF93E0915A02F0915B0260818CE0A2
:1012400092E00E94D508FF91EF91BF91AF919F91DD
:101250008F917F916F915F914F913F912F910F905F
:101260000FBE0F901F9018951F920F920FB60F92FE
:1012700011242F933F934F935F936F937F938F939B
:101280009F93AF93BF93EF93FF93E091B602F091DA
:10129000B702608188E692E00E94D508FF91EF9145
:1012A000BF91AF919F918F917F916F915F914F917E
:1012B0003F912F910F900FBE0F901F90189560E0F7
:1012C0008CE592E00E94830761E080E092E00C945C
:1012D00083071F93CF93DF93182FEB01209721F4FF
:1012E00060E00E94000640E0143079F1153029F1E9
:1012F0001630E9F1173099F1133169F0143109F022
:1013000044C011C060E001C061E0812FDF91CF9146
:101310001F910C94000660E08AE093E00E948D1318
:10132000AE0160E007C061E08AE093E00E948D13A7
:10133000AE0161E08AE093E023C060E088EE92E0D5
:101340000E948D13AE0160E007C061E088EE92E07C
:101350000E948D13AE0161E088EE92E011C060E062
:1013600086EC92E00E948D13AE0160E007C061E060
:1013700086EC92E00E948D13AE0161E086EC92E073
:10138000DF91CF911F910C94BA13C038D10508F4A6
:10139000B9CFBACF8091BB029091BC02A091BD029F
:1013A000B091BE02892B8A2B8B2B51F19091B80200
:1013B000E091B902F091BA028081892780838091FF
:1013C000BB029091BC02A091BD02B091BE02181662
:1013D00019061A061B0644F58091BB029091BC02C7
:1013E000A091BD02B091BE020197A109B1098093FD
:1013F000BB029093BC02A093BD02B093BE020895BD
:1014000040E061E086EC92E00E9428132091B8024F
:10141000E091B902F091BA02808190E030E020952D
:10142000309582239323808308958091C202909106
:10143000C302A091C402B091C502892B8A2B8B2BC9
:1014400051F19091BF02E091C002F091C102808100
:10145000892780838091C2029091C302A091C40227
:10146000B091C502181619061A061B0644F580919C
:10147000C2029091C302A091C402B091C50201972B
:10148000A109B1098093C2029093C302A093C40240
:10149000B093C502089540E061E088EE92E00E94BA
:1014A00028132091BF02E091C002F091C102808117
:1014B00090E030E020953095822393238083089537
:1014C0001F93CF93DF93182F80912101A2E2B1E007
:1014D000ED0108C09991911305C0F0E0E458FF4F69
:1014E000C49187C0EC2FEA1BE817A0F320E030E09E
:1014F00012C0A9019D912F5F3F4F9F3F61F4DA0118
:10150000AE5DBE4F1C93F0E0E458FF4FC491CF3F57
:1015100031F4CFEF6EC0E22F281758F3FACFC13065
:1015200021F0C23009F065C033C064E088EE92E07B
:101530000E94771360E088EE92E00E947A121830E1
:1015400068F0812F8850883060F08850883060F0D3
:101550008850883060F422E230E00BC02BE230E0AB
:1015600008C028E230E005C025E230E002C020E0FB
:1015700030E03093C1022093C002177021E030E0C8
:10158000012E01C0220F0A94EAF72093BF0231C056
:1015900062E086EC92E00E94771360E086EC92E0D5
:1015A0000E947A12183068F0812F8850883060F0DD
:1015B0008850883060F08850883060F422E230E053
:1015C0000BC02BE230E008C028E230E005C025E285
:1015D00030E002C020E030E03093BA022093B9023C
:1015E000177021E030E001C0220F1A95EAF720932E
:1015F000B8028C2FDF91CF911F910895CF93C82F00
:10160000809122018C1307C0ECE7F0E0E4918FEFAA
:101610008093220101C0EFEF809123018C1306C05B
:10162000EDE7F0E0E4918FEF80932301E13019F0D2
:10163000E23081F407C020E040E050E061E088EE55
:1016400092E006C020E040E050E061E086EC92E0ED
:101650000E944D1360E08C2FCF910C9400062F92C6
:101660003F924F925F926F927F928F929F92AF9232
:10167000BF92CF92DF92EF92FF921F93CF93DF93AF
:1016800000D000D0CDB7DEB7F82E1B0129013A01FA
:1016900061157105B9F40F900F900F900F90DF91C5
:1016A000CF911F91FF90EF90DF90CF90BF90AF90C0
:1016B0009F908F907F906F905F904F903F902F9072
:1016C0000C94FE0A0E94600A182F61E08F2D0E9480
:1016D000AE0511160CF037C14101A12CB12C60E010
:1016E00072E18AE790E0A50194010E943916123058
:1016F00009F0A5C029833A834B835C8369017A0191
:1017000081E0C81AD108E108F108EFEFCE16D10444
:10171000E104F10409F008F484C060E472E48FE0AD
:1017200090E0A50194010E94391669017A01F1E067
:10173000CF1AD108E108F1088FEFC816D104E104EF
:10174000F10409F008F46FC060E970ED83E090E007
:10175000A50194010E94391669017A01E1E0CE1ACF
:10176000D108E108F108FFEFCF16D104E104F1043C
:1017700009F008F45AC068E478EE81E090E0A50131
:1017800094010E94391669017A0181E0C81AD108D2
:10179000E108F108EFEFCE16D104E104F10409F0FD
:1017A00008F445C064E274EF80E090E0A501940184
:1017B0000E94391669017A01F1E0CF1AD108E108D7
:1017C000F1088FEFC816D104E104F10491F188F11A
:1017D00062E17AE780E090E0A50194010E94391669
:1017E00069017A01E1E0CE1AD108E108F108FFEFC2
:1017F000CF16D104E104F104F1F0E8F069817A81B7
:101800008B819C8120E034E040E050E00E9439165A
:1018100069017A0181E0C81AD108E108F10867E09E
:101820000BC061E009C062E007C063E005C064E08E
:1018300003C065E001C066E086EC92E023C0690168
:101840007A01E1E0CE1AD108E108F108C114D1040F
:10185000F1E0EF06F10488F068E478EE81E090E0D2
:10186000A50194010E94391669017A0181E0C81A24
:10187000D108E108F10864E001C061E0113021F411
:1018800088EE92E00E947A121414150416041704CC
:1018900084F4D101AA0FBB1FA30192010E940C1670
:1018A00028EE33E040E050E00E94391649015A0129
:1018B00004C088248A94982C5401113021F01230ED
:1018C00009F041C015C0A60160E088EE92E00E94D8
:1018D000BA138092C2029092C302A092C402B09244
:1018E000C50221E045E15AE061E088EE92E014C0D3
:1018F000A60160E086EC92E00E94BA138092BB02DF
:101900009092BC02A092BD02B092BE0221E04AECCD
:1019100059E061E086EC92E00F900F900F900F90ED
:10192000DF91CF911F91FF90EF90DF90CF90BF900C
:10193000AF909F908F907F906F905F904F903F906F
:101940002F900C944D130F900F900F900F90DF91EC
:10195000CF911F91FF90EF90DF90CF90BF90AF900D
:101960009F908F907F906F905F904F903F902F90BF
:101970000895CF92DF92EF92FF920F931F93CF9330
:10198000DF936C01EB017A01E60EF71E00E010E038
:101990000BC06991D601ED91FC910190F081E02D91
:1019A000C6010995080F191FCE15DF0591F7C8016B
:1019B000DF91CF911F910F91FF90EF90DF90CF902B
:1019C00008956115710581F0DB010D900020E9F7A4
:1019D000AD0141505109461B570BDC01ED91FC91C3
:1019E0000280F381E02D099480E090E00895DC010D
:1019F000ED91FC910190F081E02D0994DC01ED91D5
:101A0000FC91DB0114964D915C9115976D917C9141
:101A10000280F381E02D09940F931F93CF93DF93FE
:101A2000EC016DE00E94F70C8C016AE0CE010E948F
:101A3000F70C9C01200F311FC901DF91CF911F913D
:101A40000F9108950F931F93CF93DF93EC010E94A2
:101A5000FE0C8C01CE010E940C0D9C01200F311F49
:101A6000C901DF91CF911F910F9108950F931F939B
:101A7000CF93DF93EC010E94E10C8C01CE010E9418
:101A80000C0D9801280F391FC901DF91CF911F91CB
:101A90000F9108954F925F926F927F929F92AF92B3
:101AA000BF92CF92DF92EF92FF920F931F93CF934B
:101AB000DF93CDB7DEB7A1970FB6F894DEBF0FBEA8
:101AC000CDBF5C016A017B01922E19A281E08217D1
:101AD00010F08AE0982E8E010F5D1F4F492C512C7B
:101AE000612C712CC701B601A30192010E94171647
:101AF0008C2D929E80191124015011098A3014F402
:101B0000805D01C0895CF801808369017A01C1149C
:101B1000D104E104F10431F7B801C5010E94E10CE0
:101B2000A1960FB6F894DEBF0FBECDBFDF91CF9167
:101B30001F910F91FF90EF90DF90CF90BF90AF90EB
:101B40009F907F906F905F904F900895CF92DF921B
:101B5000EF92FF920F931F93CF93DF93EC016A01F3
:101B60007B012115310579F4E881F9810190F0813B
:101B7000E02D642FDF91CF911F910F91FF90EF9097
:101B8000DF90CF9009942A30310519F477FD0EC00B
:101B90002AE0B701A601CE01DF91CF911F910F91ED
:101BA000FF90EF90DF90CF900C944A0D6DE20E9471
:101BB000F70C8C0144275527BA014C195D096E09B1
:101BC0007F092AE0CE010E944A0D080F191FC801A3
:101BD000DF91CF911F910F91FF90EF90DF90CF9009
:101BE00008957F928F929F92AF92BF92CF92DF9291
:101BF000EF92FF920F931F93CF93DF93EC016A0153
:101C00007B01122F9A01AB01C701B6010E94081691
:101C1000882319F060E871E032C046015701E8946A
:101C2000B7F82FEF3FEF4FE75FE7C501B4010E9420
:101C3000081681110DC02FEF3FEF4FE75FE7C50199
:101C4000B4010E94521418161CF464E871E017C025
:101C50002FEF3FEF4FE75FE4C701B6010E94A115E8
:101C600018160CF40AC02FEF3FEF4FE75FECC701E7
:101C7000B6010E94521487FF12C068E871E0CE01DD
:101C8000DF91CF911F910F91FF90EF90DF90CF9058
:101C9000BF90AF909F908F907F900C94E10C20E0CC
:101CA00030E0A901C701B6010E94521487FF0AC0A3
:101CB0006DE2CE010E94F70C5C01F7FAF094F7F8A0
:101CC000F09402C0A12CB12C00E060E070E080E054
:101CD0009FE307C020E030E040E251E40E94561448
:101CE0000F5F0113F7CF262F372F482F592FC7012A
:101CF000B6010E94EE13762E872E982EC92E0E94D2
:101D0000C314D62EE72EF82E092F0E94EF149B0144
:101D1000AC01672D782D892D9C2D0E94ED13C62EC8
:101D2000972E882E792E2AE04D2D5E2D6F2D702F47
:101D3000CE010E944A0D7C01EA0CFB1C1123B9F173
:101D40006CE871E0CE010E94E10CE80EF91E2FC094
:101D500020E030E040E251E46C2D792D882D972D64
:101D60000E94A515762E072F6C019D2D0E94BE1492
:101D70004B01AA2497FCA094BA2C2AE030E0B501CC
:101D8000A401CE010E94A60DE80EF91EC501B40102
:101D90000E94F1149B01AC01672D702F8C2D9D2D9D
:101DA0000E94ED13C62E972E882E792E11501111F8
:101DB000CFCFC701DF91CF911F910F91FF90EF908F
:101DC000DF90CF90BF90AF909F908F907F900895BD
:101DD0000F931F93CF93DF93EC010E94F10D8C01C1
:101DE000CE010E940C0D9801280F391FC901DF9107
:101DF000CF911F910F910895FC01808191810C94E6
:101E00000217CF93DF93EC0188819981009711F03D
:101E10000E940217198218821D821C821B821A825C
:101E2000DF91CF9108950F931F93CF93DF93EC0130
:101E30008B016F5F7F4F888199810E949F17009768
:101E400031F0998388831B830A8381E001C080E09D
:101E5000DF91CF911F910F910895CF93DF93EC0104
:101E600088819981892B31F08A819B818617970718
:101E700008F00CC0CE010E94130F882349F08C811A
:101E80009D81892B19F4E881F981108281E001C0DC
:101E900080E0DF91CF910895EF92FF920F931F930F
:101EA000CF93DF93EC017B018A01BA010E942D0FD1
:101EB000811104C0CE010E94010F07C01D830C8355
:101EC000B701888199810E947D18CE01DF91CF9161
:101ED0001F910F91FF90EF900895DC0111961C92D5
:101EE0001E9213961C921E92129715961C921E9289
:101EF000149716961C926115710559F0DB010D902F
:101F00000020E9F7AD0141505109461B570B0C94D5
:101F10004C0F0895CF93DF93EC01FB0186179707D1
:101F200061F0608171816115710529F044815581ED
:101F30000E944C0F02C00E94010FCE01DF91CF9191
:101F40000895FC011182108213821282158214827C
:101F500016820C948A0FCF93DF93D82FC92F611567
:101F6000710561F0DB010D900020E9F7AD014150F2
:101F70005109461B570B0E944C0F02C00E94010FD3
:101F80008D2F9C2FDF91CF9108950F931F93CF93A7
:101F9000DF93CDB7DEB729970FB6F894DEBF0FBE3B
:101FA000CDBF8C01862FF80111821082138212821C
:101FB00015821482168250E0BE016F5F7F4F90E061
:101FC0000E948418BE016F5F7F4FC8010E94AB0F53
:101FD00029960FB6F894DEBF0FBECDBFDF91CF912B
:101FE0001F910F910895CF93DF9300D0CDB7DEB747
:101FF000FC011182108213821282158214821682D1
:1020000069831A82BE016F5F7F4F0E94AB0F0F90F2
:102010000F90DF91CF910895EF92FF920F931F934E
:10202000CF93DF93EC017B010C811D81611571055C
:1020300011F480E016C04115510591F0040F151FF1
:10204000B8010E942D0F8823A1F3288139818C814A
:102050009D81B701820F931F0E947D181D830C8301
:1020600081E0DF91CF911F910F91FF90EF90089544
:10207000FB0144815581608171810C940C10CF93D8
:10208000DF93D82FC92FFB01448155816081718175
:102090000E940C10811104C08D2F9C2F0E94010FF3
:1020A0008D2F9C2FDF91CF910895CF93DF93DC018B
:1020B000ED91FC91EB01A881B981309711F0109757
:1020C000C9F4109759F0EB012C813D81232B31F09D
:1020D0002C9130E031952195310914C0309781F071
:1020E000DC0114968D919C911597892B49F02081E4
:1020F00030E008C0BD01CF01DF91CF910C9474187E
:1021000020E030E0C901DF91CF910895FC014481C6
:102110005581FB01248135814217530729F40E9420
:10212000551021E0892B09F020E0822F0895FC0151
:1021300084819581DB0114964D915C9115978417EC
:102140009507A0F0208131812115310579F06D913D
:102150007C916115710551F0841B950B820F931FC3
:102160000E9474189C0181E0232B09F080E00895FF
:1021700063E08AE093E00E94771321E045E455E0B4
:1021800060E08AE093E00E944D1364E08AE093E00F
:102190000E947A1261E088EE92E00E94771364E078
:1021A00088EE92E00E947A1261E086EC92E00E9452
:1021B000771364E086EC92E00E947A127894089596
:1021C0001F920F920FB60F9211242F933F934F93AC
:1021D0005F936F937F938F939F93AF93BF93EF938F
:1021E000FF93E0912403F0912503309709F00995BE
:1021F000FF91EF91BF91AF919F918F917F916F91DF
:102200005F914F913F912F910F900FBE0F901F90B4
:1022100018951F920F920FB60F9211242F933F9390
:102220004F935F936F937F938F939F93AF93BF93DE
:10223000EF93FF93E0912603F0912703309709F085
:102240000995FF91EF91BF91AF919F918F917F91F0
:102250006F915F914F913F912F910F900FBE0F9013
:102260001F9018951F920F920FB60F9211242F9363
:102270003F934F935F936F937F938F939F93AF930E
:10228000BF93EF93FF93E0912203F09123033097E4
:1022900009F00995FF91EF91BF91AF919F918F91B7
:1022A0007F916F915F914F913F912F910F900FBE52
:1022B0000F901F9018951F920F920FB60F92112436
:1022C0002F933F934F935F936F937F938F939F933E
:1022D000AF93BF93EF93FF93E091E002F091E1029F
:1022E000309709F00995FF91EF91BF91AF919F91C0
:1022F0008F917F916F915F914F913F912F910F90AF
:102300000FBE0F901F9018951F920F920FB60F924D
:1023100011242F933F934F935F936F937F938F93EA
:102320009F93AF93BF93EF93FF93E091E202F091FD
:10233000E302309709F00995FF91EF91BF91AF91BA
:102340009F918F917F916F915F914F913F912F91CD
:102350000F900FBE0F901F9018951F920F920FB6FF
:102360000F9211242F933F934F935F936F937F931B
:102370008F939F93AF93BF93EF93FF93E091DE0210
:10238000F091DF02309709F00995FF91EF91BF912D
:10239000AF919F918F917F916F915F914F913F91FD
:1023A0002F910F900FBE0F901F9018951F920F92B4
:1023B0000FB60F9211242F933F934F935F936F9318
:1023C0007F938F939F93AF93BF93EF93FF93E0918E
:1023D0000203F0910303309709F00995FF91EF9103
:1023E000BF91AF919F918F917F916F915F914F912D
:1023F0003F912F910F900FBE0F901F9018951F9235
:102400000F920FB60F9211242F933F934F935F9328
:102410006F937F938F939F93AF93BF93EF93FF93AC
:10242000E0910403F0910503309709F00995FF91BD
:10243000EF91BF91AF919F918F917F916F915F913C
:102440004F913F912F910F900FBE0F901F901895B5
:102450001F920F920FB60F9211242F933F934F9319
:102460005F936F937F938F939F93AF93BF93EF93FC
:10247000FF93E0910003F0910103309709F0099573
:10248000FF91EF91BF91AF919F918F917F916F914C
:102490005F914F913F912F910F900FBE0F901F9022
:1024A00018951F920F920FB60F9211242F933F93FE
:1024B0004F935F936F937F938F939F93AF93BF934C
:1024C000EF93FF93E0910803F0910903309709F02F
:1024D0000995FF91EF91BF91AF919F918F917F915E
:1024E0006F915F914F913F912F910F900FBE0F9081
:1024F0001F901895DC012C916150223039F467301F
:1025000068F4E62FF0E0E257FE4F06C0693030F481
:10251000E62FF0E0EB56FE4F208101C020E0DC0109
:102520001A96ED91FC911B978081887F822B808386
:102530000895CF93DF93EC016883613011F120F0AF
:10254000623009F06CC048C01B821A8286E490E0B9
:102550009D838C838EE690E09F838E8384E490E05D
:102560009987888785E490E09B878A871D861C86EB
:1025700087E490E09F878E87198A188A88E490E024
:1025800022C08FE690E09F838E8385E890E09B8356
:102590008A8384E890E09D838C8380E890E099872B
:1025A000888781E890E09B878A8789E890E09D870B
:1025B0008C8788E890E09F878E878BE890E0998BE6
:1025C000888B8AE890E09B8B8A8B1D8A1C8A1F8AE5
:1025D0001E8A82E0898323C01B821A8282EB90E0EC
:1025E0009D838C8380E790E09F838E8380EB90E0D7
:1025F0009987888781EB90E09B878A871D861C8658
:1026000083EB90E09F878E87198A188A84EB90E08D
:102610009B8B8A8B1D8A1C8A1F8A1E8A698360E0B5
:10262000CE010E947A12EA81FB81309709F0108274
:10263000EC81FD811082198E188E1B8E1A8E1D8ED4
:102640001C8E1F8E1E8E19A218A2DF91CF910895A5
:1026500051E0411101C050E06530F0F4E62FF0E0A8
:10266000E256FE4F408147FD17C0DC011696ED9102
:10267000FC911797808121E030E0042E01C0220FE9
:102680000A94EAF720952823852F042E01C0880F8D
:102690000A94EAF7282B20830895623099F028F4F1
:1026A000662341F06130C9F409C0633079F06430C9
:1026B000A1F410C0FC01518F408F0FC0FC01538F5B
:1026C000428F0BC0FC01558F448F07C0FC01578F10
:1026D000468F03C0FC0151A340A3452B11F440E0F9
:1026E00003C0222319F041E00C9428130895DC0163
:1026F0001896ED91FC9119973081262F23703C7F1D
:10270000232B20831A96ED91FC911B9780816C708E
:10271000660F877E682B60830895FC0181816817AE
:1027200040F59081992311F0923011F4813049F0F5
:10273000662329F0613029F0623031F404C026E0CC
:1027400003C024E001C022E00084F185E02D308147
:1027500083E090E0022E01C0880F0A94EAF780958A
:1027600083234370022E01C0440F0A94EAF7842B9E
:1027700080830895FC0181816817F8F4611109C014
:10278000A485B585109709F05C930684F785E02D44
:1027900013C0613049F4A089B189109709F05C93A6
:1027A0000288F389E02D08C0623039F4A489B58924
:1027B0005C930688F789E02D4083089560E08AE005
:1027C00093E00E94991261E088EE92E00E949912D3
:1027D00062E086EC92E00C9499125058BB27AA272D
:1027E0000ED075C166D130F06BD120F031F49F3F2F
:1027F00011F41EF45BC10EF4E095E7FB51C1E92F23
:1028000077D180F3BA17620773078407950718F02A
:1028100071F49EF58FC10EF4E0950B2EBA2FA02D0A
:102820000B01B90190010C01CA01A0011124FF277D
:10283000591B99F0593F50F4503E68F11A16F04078
:10284000A22F232F342F4427585FF3CF4695379577
:102850002795A795F0405395C9F77EF41F16BA0B3C
:10286000620B730B840BBAF09150A1F0FF0FBB1FEA
:10287000661F771F881FC2F70EC0BA0F621F731F33
:10288000841F48F4879577956795B795F7959E3F90
:1028900008F0B3CF9395880F08F09927EE0F97951E
:1028A00087950895D9D008F481E008950CD00FC120
:1028B00007D140F0FED030F021F45F3F19F0F0C0B6
:1028C000511139C1F3C014D198F39923C9F3552399
:1028D000B1F3951B550BBB27AA2762177307840713
:1028E00038F09F5F5F4F220F331F441FAA1FA9F3C9
:1028F00033D00E2E3AF0E0E830D091505040E695BB
:10290000001CCAF729D0FE2F27D0660F771F881F1B
:10291000BB1F261737074807AB07B0E809F0BB0B0A
:10292000802DBF01FF2793585F4F2AF09E3F51052E
:1029300068F0B6C000C15F3FECF3983EDCF38695CB
:1029400077956795B795F7959F5FC9F7880F911DA4
:102950009695879597F90895E1E0660F771F881F90
:10296000BB1F621773078407BA0720F0621B730B43
:10297000840BBA0BEE1F88F7E095089504D0689495
:10298000B111D9C00895BCD088F09F5790F0B92FED
:102990009927B751A0F0D1F0660F771F881F991FB4
:1029A0001AF0BA95C9F712C0B13081F0C3D0B1E0C6
:1029B0000895C0C0672F782F8827B85F39F0B93FD6
:1029C000CCF3869577956795B395D9F73EF49095B6
:1029D0008095709561957F4F8F4F9F4F0895E89434
:1029E00009C097FB3EF490958095709561957F4F57
:1029F0008F4F9F4F9923A9F0F92F96E9BB27939505
:102A0000F695879577956795B795F111F8CFFAF414
:102A1000BB0F11F460FF1BC06F5F7F4F8F4F9F4F45
:102A200016C0882311F096E911C0772321F09EE8A3
:102A3000872F762F05C0662371F096E8862F70E009
:102A400060E02AF09A95660F771F881FDAF7880FE3
:102A50009695879597F90895990F0008550FAA0B39
:102A6000E0E8FEEF16161706E807F907C0F01216A1
:102A70001306E407F50798F0621B730B840B950BA4
:102A800039F40A2661F0232B242B252B21F40895F9
:102A90000A2609F4A140A6958FEF811D811D089596
:102AA00097F99F6780E870E060E008959FEF80EC01
:102AB000089500240A9416161706180609060895A4
:102AC00000240A9412161306140605060895092E0A
:102AD0000394000C11F4882352F0BB0F40F4BF2B79
:102AE00011F460FF04C06F5F7F4F8F4F9F4F0895B9
:102AF00057FD9058440F551F59F05F3F71F04795AF
:102B0000880F97FB991F61F09F3F79F08795089593
:102B1000121613061406551FF2CF4695F1DF08C0B2
:102B2000161617061806991FF1CF869571056105CF
:102B300008940895E894BB2766277727CB0197F977
:102B400008958ADF08F48FEF08950BD0C0CFB1DF6E
:102B500028F0B6DF18F0952309F0A2CFA7CF1124F3
:102B6000EACFC6DFA0F3959FD1F3950F50E0551F34
:102B7000629FF001729FBB27F00DB11D639FAA27D2
:102B8000F00DB11DAA1F649F6627B00DA11D661F21
:102B9000829F2227B00DA11D621F739FB00DA11D42
:102BA000621F839FA00D611D221F749F3327A00DFC
:102BB000611D231F849F600D211D822F762F6A2F98
:102BC00011249F5750408AF0E1F088234AF0EE0F1D
:102BD000FF1FBB1F661F771F881F91505040A9F72A
:102BE0009E3F510570F05CCFA6CF5F3FECF3983E5F
:102BF000DCF3869577956795B795F795E7959F5F91
:102C0000C1F7FE2B880F911D9695879597F908952A
:102C100023DF880B990B08950E945516A59F900DF0
:102C2000B49F900DA49F800D911D11240895A1E2E1
:102C30001A2EAA1BBB1BFD010DC0AA1FBB1FEE1F36
:102C4000FF1FA217B307E407F50720F0A21BB30B81
:102C5000E40BF50B661F771F881F991F1A9469F7FD
:102C600060957095809590959B01AC01BD01CF0159
:102C70000895052E97FB16F4009407D057FD0DD04C
:102C80000E94171607FC09D07EF4909580957095E8
:102C900061957F4F8F4F9F4F089550954095309588
:102CA00021953F4F4F4F5F4F0895A29FB001B39FB3
:102CB000C001A39F01D0B29F700D811D1124911DF1
:102CC0000895EE0FFF1F0590F491E02D09940F93E6
:102CD0001F93CF93DF938230910510F482E090E050
:102CE000E0912E03F0912F0320E030E0C0E0D0E02F
:102CF00023C04081518148175907A8F04817590748
:102D000061F482819381209719F09B838A832EC07E
:102D100090932F0380932E0329C02115310529F0AC
:102D20004217530710F0A90102C0BE01DF01028162
:102D30001381EF019A01F8013097D9F62115310579
:102D400009F1281B390B2430310590F412968D912E
:102D50009C9113976115710521F0FB019383828388
:102D600004C090932F0380932E03FD01329644C03C
:102D7000FD01E20FF31F81939193225031092D93AE
:102D80003C933AC020912C0330912D03232B41F426
:102D9000209102013091030130932D0320932C03E5
:102DA00020910001309101012115310541F42DB729
:102DB0003EB74091040150910501241B350BE09171
:102DC0002C03F0912D03E217F307A0F42E1B3F0B09
:102DD0002817390778F0AC014E5F5F4F241735078D
:102DE00048F04E0F5F1F50932D0340932C038193A7
:102DF000919302C0E0E0F0E0CF01DF91CF911F910D
:102E00000F910895EF92FF920F931F93CF93DF934B
:102E1000009709F48FC0DC01129713961C921E9242
:102E20001297E0902E03F0902F03E114F10489F43F
:102E30002D913C911197280F391F80912C0390916F
:102E40002D038217930789F5B0932D03A0932C03CC
:102E500071C0E70120E030E001C0EA01CA17DB07DA
:102E600038F44A815B819E0141155105B1F722C0BA
:102E7000BC0162507109FB01D383C28300811181BF
:102E8000AC01400F511F4C175D0761F44881598117
:102E9000400F511F4E5F5F4F518340834A815B81DA
:102EA000538342832115310529F4B0932F03A09356
:102EB0002E0340C0F901B383A283E901699179919E
:102EC000C60FD71FAC17BD0779F4DC015E914E9198
:102ED000460F571F4E5F5F4F5183408312968D916F
:102EE0009C91139793838283A0E0B0E002C0D70146
:102EF0007C01F701828193810097C9F7C70102968F
:102F000020813181820F931F20912C0330912D035A
:102F10002817390779F4109729F410922F0310928B
:102F20002E0304C013961C921E921297F0922D034A
:102F3000E0922C03CDB7DEB7E6E00C94E618A0E0F3
:102F4000B0E0E5EAF7E10C94C418EC01009729F42D
:102F5000CB010E946716EC01B8C0DC01A60FB71FB9
:102F6000FC013297AE17BF0718F4C0E0D0E0ADC047
:102F70000081118106171707B0F00530110508F41C
:102F8000A4C0C80104978617970708F49EC0025092
:102F90001109061B170B0D931D9371836083CD01DF
:102FA0000E94021792C07B01E01AF10A5C01A00E98
:102FB000B11EE0912E03F0912F03812C912C80E023
:102FC00090E04CC0EA15FB05F1F5408151816A01A2
:102FD00022E0C20ED11CCE14DF04A8F19A012E19F2
:102FE0003F097901690132E0C30ED11C2EEFA22EF8
:102FF000BB24BA94AC0EBD1E25E0C216D10478F0F5
:103000004281538113965C934E9312971196FC92D2
:10301000EE92F501718360833A2F2B2F09C00E5F6A
:103020001F4F040F151FD5010D931C93328123816F
:10303000009721F0FC013283238347C030932E0395
:1030400020932F0342C0808191818816990608F44D
:103050004C0152814381CF01E52FF42F309709F0C5
:10306000B1CF80912C0390912D038A159B05F1F42B
:1030700086169706D8F4809100019091010100977F
:1030800041F48DB79EB72091040130910501821B58
:10309000930BA817B90708F068CFB0932D03A0933E
:1030A0002C03FE013297718360830FC0CB010E9415
:1030B00067167C01009709F458CFA801BE010E9451
:1030C0006B18CE010E940217E701CE01CDB7DEB723
:1030D000ECE00C94E018FB01DC0102C001900D92C1
:1030E00041505040D8F70895FB01DC018D910190CB
:1030F00080190110D9F3990B0895FB01DC010190AF
:103100000D920020E1F70895FB019F01423074F019
:10311000453264F4642F77270E94AA18805D8A33B1
:103120000CF0895D8193CB010097A1F71082C90152
:103130000C949A18DC01FC01672F71917723E1F759
:10314000329704C07C916D9370836291AE17BF0774
:10315000C8F30895AA1BBB1B51E107C0AA1FBB1FE0
:10316000A617B70710F0A61BB70B881F991F5A9513
:10317000A9F780959095BC01CD0108952F923F92BB
:103180004F925F926F927F928F929F92AF92BF9277
:10319000CF92DF92EF92FF920F931F93CF93DF9323
:1031A000CDB7DEB7CA1BDB0B0FB6F894DEBF0FBE80
:1031B000CDBF09942A88398848885F846E847D84CD
:1031C0008C849B84AA84B984C884DF80EE80FD80CF
:1031D0000C811B81AA81B981CE0FD11D0FB6F89445
:1031E000DEBF0FBECDBFED01089510E0C4E8D0E012
:1031F00004C0FE010E9463162296C638D107C9F7A3
:04320000F894FFCF70
:1032040000003003200002000E0005040309080733
:10321400063132333435363738392A302304000145
:103224000101FFFF2A0044300023004E30004431E6
:10323400004E0053310053300050310050320050E2
:1032440030004D31004D30003132333400313131F2
:10325400310032343638003038313100000000009B
:103264008306B90C35063A0660064E0600000000D7
:103274005B06DB06E106000000005606CF06D50615
:103284006E616E00696E66006F7666002E00010244
:1032940003040506070102000300040506070001F4
:0432A400020305001C
:00000001FF
