:100000000C9443000C946B000C946B000C946B00EC
:100010000C946B000C946B000C946B000C946B00B4
:100020000C946B000C946E150C9497150C94C015E1
:100030000C9464160C94E9150C9412160C943B164F
:100040000C94F3140C941C150C9445150C946B0033
:100050000C94560C0C94090A0C946B000C946B00D5
:100060000C946B000C946B000C946B000C946B0064
:100070000C942B0C0C94570A0C946B0002016B032C
:10008000810CF117AF0311241FBECFEFD0E1DEBF0B
:10009000CDBF11E0A0E0B1E0EAEEF8E302C00590C8
:1000A0000D92A63BB107D9F713E0A6EBB1E001C072
:1000B0001D92AC33B107E1F710E0C4E8D0E004C012
:1000C0002297FE010E949819CE37D107C9F70E94E6
:1000D00050090C94681C0C940000FC0182819381EF
:1000E0000895FC01228133816217730720F4808513
:1000F0009185009739F4109201021092000220E0DD
:1001000032E007C0FB01EE0FFF1FE80FF91F20814F
:100110003181C90108950F931F93CF93DF93EC01B1
:1001200083E791E09983888300E010E00BC0F80139
:10013000EE0FFF1FE80FF91F808191810E9450117F
:100140000F5F1F4F2A813B8188859985021713070E
:1001500070F31B821A82009731F0DF91CF911F91CB
:100160000F910C945711DF91CF911F910F9108952A
:10017000CF93DF93EC010E948B00CE01DF91CF91F2
:100180000C9450110F931F93CF93DF93EB018A01CF
:1001900042E0BC018DE00E948B0C42E0BE018CE08D
:1001A0000E948B0C42E0B8018AE0DF91CF911F9151
:1001B0000F910C948B0CEF920F93E12C01E028E04F
:1001C00040E855E260E070E088E692E00E94290B8A
:1001D0003F9A08986AE571E08FEE91E00E942B1338
:1001E0001092CF011092C9011092D0011092CE014D
:1001F0003D9A3C9A3A9A3B9840E050E06FEB70E0B1
:100200008FEB90E00E94C20061E0809109010E94A2
:10021000D00860E0809107010F91EF900C94D00816
:100220005F926F927F928F929F92AF92BF92CF9286
:10023000DF92EF92FF920F931F93CF93DF93CDB78F
:10024000DEB727970FB6F894DEBF0FBECDBF3C01D7
:1002500053E1A52EB12CE12CF12C03E010E0B70105
:1002600082E092E00E942908C82ED12C2BC0C0FC4D
:1002700005C00E5F1F4FD594C79424C0B80182E01B
:1002800092E00E942908582EB8016F5F7F4F82E0EC
:1002900092E00E942908982E812CB401650D711DF1
:1002A0004AE0CE0101960E944513B301CE010196AA
:1002B0000E94EF13582ECE0101960E947C12552009
:1002C000C1F211C0C114D10491F68FEFE81AF80AF7
:1002D000850180E1A80EB11C83E0E816F10409F065
:1002E000BECF80E001C081E027960FB6F894DEBF54
:1002F0000FBECDBFDF91CF911F910F91FF90EF9077
:10030000DF90CF90BF90AF909F908F907F906F9035
:100310005F9008950F931F93CF93DF938C01EB01B0
:1003200060E071E00E942419BE01660F771F6D5FC7
:100330007F4F482F82E092E00E942C08A80117FF0F
:1003400002C041505F4F452F550F550BBE016E5FE8
:100350007F4F660F771F82E092E00E942C088E018B
:10036000D7FF02C0095F1F4F63E0159507956A9597
:10037000E1F71127B80182E092E00E942908482F96
:10038000CE0168E070E00E94241921E030E001C055
:10039000220F8A95EAF7422BB80182E092E0DF91C2
:1003A000CF911F910F910C942C080F931F93CF9313
:1003B000DF938C01EB0160E071E00E942419BE0123
:1003C000660F771F6D5F7F4F482F82E092E00E949B
:1003D0002C08A80117FF02C041505F4F452F550F51
:1003E000550BBE016E5F7F4F660F771F82E092E074
:1003F000DF91CF911F910F910C942C080F931F93B5
:10040000CF93DF938C01EC0197FD279623E0D595E0
:10041000C7952A95E1F7DD27BE0182E092E00E94B0
:100420002908482FC80168E070E00E94241921E0E3
:1004300030E001C0220F8A95EAF74227BE0182E030
:1004400092E0DF91CF911F910F910C942C0840E026
:1004500060E070E082E092E00E942C0840E061E001
:1004600070E082E092E00E942C0840E062E070E0E0
:1004700082E092E00C942C080F931F93CF93DF93AC
:100480008C01EC0197FD279633E0D595C7953A95F9
:10049000E1F7DD27BE0182E092E00E942908482FA3
:1004A000C80168E070E00E94241921E030E001C03A
:1004B000220F8A95EAF7422BBE0182E092E0DF919B
:1004C000CF911F910F910C942C08FC012281338154
:1004D0006217730720F480859185009739F4109294
:1004E000FF011092FE012EEF31E007C0FB01EE0F7D
:1004F000FF1FE80FF91F20813181C90108950C9475
:100500006502EF92FF920F931F93CF93DF93CDB7C6
:10051000DEB72A970FB6F894DEBF0FBECDBF7C01C1
:1005200083E791E09A8389831C821B820AE010E0B2
:100530001E830D8384E190E00E9455119A8789877C
:10054000892B19F018870F8304C018861F821E821A
:100550001D82AE014F5F5F4F6BE370E0C7010E94E9
:10056000B91160E070E0CE0101960E946502FC01C5
:1005700080819181892BB1F562E070E0CE01019616
:100580000E946502FC010081118161E070E0CE01F2
:1005900001960E946502B801FC01808191810E9450
:1005A0008A0161E070E0CE0101960E946502FC01C3
:1005B000608171814AE050E088E692E00E94151166
:1005C00062E070E0CE0101960E946502FC0160814C
:1005D00071814AE050E088E692E00E94151163E2E2
:1005E00071E064C060E070E0CE0101960E94650297
:1005F000FC01808191810197C1F462E070E0CE013D
:1006000001960E946502FC010081118161E070E0A9
:10061000CE0101960E946502B801FC0180819181A2
:100620000E94D50167E271E041C060E070E0CE0158
:1006300001960E946502FC0180819181029771F40C
:1006400061E070E0CE0101960E946502FC018081AC
:1006500091810E94FE016EE271E028C060E070E0CE
:10066000CE0101960E946502FC0180819181039771
:1006700029F40E94270265E371E018C060E070E091
:10068000CE0101960E946502FC0180819181049750
:1006900089F461E070E0CE0101960E946502FC01E0
:1006A000808191810E943C026FE371E088E692E0D4
:1006B0000E942010CE0101960E948B002A960FB650
:1006C000F894DEBF0FBECDBFDF91CF911F910F9188
:1006D000FF90EF900895EF920F930E949C08609313
:1006E000FA017093FB018093FC019093FD010E943D
:1006F0009C08605A75418F4F9F4F6093F60170932D
:10070000F7018093F8019093F9016AE571E08FEEAB
:1007100091E00E94ED1253E0E52E04E02BE031E081
:100720004EE051E062E171E081ED91E00E94FD0751
:100730000E949C086093BA017093BB018093BC0136
:100740009093BD010E949C086093B6017093B7011D
:100750008093B8019093B9010F91EF9008958FEEB7
:1007600091E00C947C12FF920F931F93CF93DF9331
:10077000CDB7DEB72E970FB6F894DEBF0FBECDBF54
:100780000E949C086093FA017093FB018093FC0126
:100790009093FD010091F6011091F7012091F8016D
:1007A0003091F9016017710782079307A0F067E4A1
:1007B00071E088E692E00E945A100E949C08605AFC
:1007C00075418F4F9F4F6093F6017093F7018093AF
:1007D000F8019093F90188E10E943708BC0188274D
:1007E00077FD8095982F0E94061823E333E343E5B5
:1007F00050E40E94B61820E030E040E85AE30E943E
:10080000B618FB01462F5F2F682F792F4093BF0149
:100810005093C0016093C1017093C2012AE939E984
:1008200049E95FE3BF010E94001818160CF486C066
:10083000479A0E949C086093BA017093BB01809311
:10084000BC019093BD018091BE01811111C00E9435
:100850009C08605D7A488F4F9F4F6093B6017093FC
:10086000B7018093B8019093B90181E08093BE01F4
:100870004091B6015091B7016091B8017091B901F2
:100880008091BA019091BB01A091BC01B091BD01D2
:10089000481759076A077B0728F0809106018823CB
:1008A00009F450C020E030E0A90166E071E080E189
:1008B0000E94510E61E571E088E692E00E945A10B4
:1008C0004091BA015091BB016091BC017091BD0192
:1008D0002AE030E088E692E00E943C114091B601A7
:1008E0005091B7016091B8017091B9012AE030E0F0
:1008F00088E692E00E943C1160ED77E080E090E0B5
:100900000E94AE0880E10E94200E1092BE010E945B
:100910009C086093BA017093BB018093BC019093D3
:10092000BD010E949C086093B6017093B70180934B
:10093000B8019093B9011092060104C0479881E074
:100940008093060181ED91E00E94B3068823C9F0EF
:10095000682FCE0101960E947213BE016F5F7F4F18
:100960008FEE91E00E94B713CE0101960E947C1297
:100970006FEE71E088E692E00E94461081E080937D
:10098000C4018091CF01882329F167E571E0CE0190
:1009900001960E94ED12BE016F5F7F4F8FEE91E0D6
:1009A0000E940014182FCE0101960E947C12112380
:1009B00089F040E050E06FEB70E08FEB90E00E9438
:1009C000C2001092CF0142986AE571E08FEE91E08B
:1009D0000E942B1369E571E0CE0101960E94ED1291
:1009E000BE016F5F7F4F8FEE91E00E94001488235D
:1009F00039F011E08091F3019091F401059708F02E
:100A000010E0CE0101960E947C12112331F06AE5BC
:100A100071E08FEE91E00E942B138091F301909191
:100A2000F4018430910561F56FEE71E0CE0101961D
:100A30000E942113CE0101960E941001182FCE01B1
:100A400001960E947C12112309F45FC16BE571E0ED
:100A500088E692E00E945A104FEF50E060E070E0AC
:100A60008FEF90E00E94C200429A81E08093CF0114
:100A70008091C40181111092C4011092C90116C065
:100A80000597A0F04FEF50E060E070E08FEF90E04E
:100A90000E94C2008091C401882341F063E671E0A6
:100AA00088E692E00E945A101092C4018091C90118
:100AB000833078F14FEF50E06FEF70E080E090E02E
:100AC0000E94C2006AE571E08FEE91E00E942B1354
:100AD0001092C90166E671E088E692E00E945A1021
:100AE00020E030E0A90166E071E080E10E94510E53
:100AF00068EE73E080E090E00E94AE0880E10E9422
:100B0000200E40E050E06FEB70E08FEB90E00E9431
:100B1000C20064E670E080E090E00E94AE08809140
:100B2000CE0181111CC0339B76C00E949C0860934B
:100B3000CA017093CB018093CC019093CD0111E059
:100B40001093CE014FEF50E060E070E08FEF90E047
:100B50000E94C2001093CF011092C9015CC0339B68
:100B60004CC00E949C080091CA011091CB012091B9
:100B7000CC013091CD01601B710B820B930B683857
:100B800073418105910508F446C04FEF50E06FEFC7
:100B900070E080E090E00E94C20020E030E0A90117
:100BA00067E174E080E10E94510E64EF71E080E043
:100BB00090E00E94AE0880E10E94200E20E030E02C
:100BC000A9016BE072E080E10E94510E64EF71E0D8
:100BD00080E090E00E94AE0880E10E94200E8091AB
:100BE000C301811118C069E671E088E692E00E94B5
:100BF0005A1081E08093C3010EC040E050E06FEBDB
:100C000070E08FEB90E00E94C2001092CF01109232
:100C1000CE011092C30164E670E080E090E00E9493
:100C2000AE08809107010E94FE08082F10E0109383
:100C3000C6010093C50101301105B1F461E0809156
:100C400009010E9422098091C7019091C801892B56
:100C5000D1F46CE671E088E692E00E945A1010939D
:100C6000C8010093C7010FC060E0809109010E9494
:100C700022098091C7019091C801019721F4109237
:100C8000C8011092C70164E670E080E090E00E9425
:100C9000AE088E01085F1F4F6AE571E0C8010E942F
:100CA000ED1229C088E692E00E948209F82EB80170
:100CB00088E692E00E9446108AE0F8120DC0B80162
:100CC000CE0101960E942113CE0101960E9481025D
:100CD000CE0101960E947C126F2DCE0101960E94DA
:100CE0007213BE016F5F7F4FC8010E94B713CE0120
:100CF00001960E947C1288E692E00E945709892B97
:100D000089F6C8010E947C120CC08091C9018F5FD6
:100D10008093C9016AE571E08FEE91E00E942B1388
:100D2000C5CE2E960FB6F894DEBF0FBECDBFDF91B5
:100D3000CF911F910F91FF900895DC0118968D912E
:100D40009C9119978617970769F019967C936E9373
:100D500018975C96ED91FC915D97309719F01A9673
:100D60008C91099408954F925F926F927F92AF9207
:100D7000BF92CF92DF92EF92FF920F931F93CF9388
:100D8000DF93EC01A12CA8C00A2D10E0EC81FD81BD
:100D9000E00FF11F60E080810E942209B12C680100
:100DA0008EC0EB2CF12C8F81E881F981EC0DFD1DBB
:100DB000B89EE00DF11D11249A85808198133CC0E6
:100DC0000E949C084E845F8468887988641975093C
:100DD000860997094A8C5B8C612C712C641575050A
:100DE0008605970550F0EA81FB81EE0DFF1D80819D
:100DF0000E94FE08882309F498C00E949C084E8433
:100E00005F84688879886419750986099709488C10
:100E1000598C612C712C641575058605970508F4AD
:100E200093C0EA81FB81EB0DF11D80810E94FE08D9
:100E3000813009F089C07FC00E949C084E845F8485
:100E4000688879886419750986099709488C598CCE
:100E5000612C712C641575058605970578F1EA817A
:100E6000FB81EE0DFF1D80810E94FE08811126C0CE
:100E7000EC81FD81E00FF11F61E080810E94220979
:100E80002F812E9DC0012F9D900D1124E881F981A5
:100E9000EC0DFD1DE80FF91FF0808E859F85A88958
:100EA000B9898A8B9B8BAC8BBD8B0E949C086E870B
:100EB0007F87888B998BF11015C005C0B3948E8104
:100EC000B81608F46ECFEC81FD81E00FF11F61E0F0
:100ED00080810E942209A3948F81A81608F454CF20
:100EE00080E040C08B85F81239C00E949C080A89B6
:100EF0001B892C893D89601B710B820B930B0E891A
:100F00001F8920E030E0061717072807390710F57A
:100F100025C081E090E09D878C87FA8661E070E0D3
:100F2000CE010E949D068A851DC063E070E0CE015F
:100F30000E949D0662CF62E070E0CE010E949D0695
:100F40008A858B871A86BFCF88859985039709F094
:100F5000B5CFB9CF8C859D850196DDCF8A85F812F6
:100F6000D8CFBECFDF91CF911F910F91FF90EF901F
:100F7000DF90CF90BF90AF907F906F905F904F9039
:100F80000895FF920F931F93CF93DF93EC01F12C01
:100F900013C00F2D10E0EA81FB81E00FF11F60E02C
:100FA00080810E94D008EA81FB81E00FF11F61E09F
:100FB00080810E942209F3948E81F81650F3F12C5F
:100FC00013C00F2D10E0EC81FD81E00FF11F61E0F7
:100FD00080810E94D008EC81FD81E00FF11F61E06B
:100FE00080810E942209F3948F81F81650F3DF91DB
:100FF000CF911F910F91FF900895EF920F93FC01F5
:1010000053834283358324830683E782718360831D
:1010100016861786108A118A128A138A148A158AEC
:101020008CE291E0978B868B82E390E0918F808FAA
:1010300088EE93E0938F828F158E148E128613861E
:101040001186108615861486CF010F91EF900C94AF
:10105000C107CB010C94081CCB01642F0C94101C0D
:1010600080E480937C0087E880937A000895CF9392
:10107000DF931F92CDB7DEB790911E01913031F40E
:1010800089830E94300810921E0189818770209107
:101090001F0140E4249F90011124822B80937C0047
:1010A00080917A00806480937A0080917A0086FD36
:1010B000FCCF2091780030917900932F80E0FC01E3
:1010C000E22B9F01C9010F90DF91CF91089580918C
:1010D000040290910502A0910602B091070230919E
:1010E0000302232F2D5F2D3720F40196A11DB11D82
:1010F00005C0232F2A570296A11DB11D209303027C
:101100008093040290930502A0930602B093070215
:101110008091080290910902A0910A02B0910B02FD
:101120000196A11DB11D8093080290930902A0931E
:101130000A02B0930B0208950F931F938FB7F89490
:1011400000910402109105022091060230910702DD
:101150008FBFB801C9011F910F9108958F929F927F
:10116000AF92BF92CF92DF92EF92FF926B017C0120
:101170000E949C084B015C010E949C086819790937
:101180008A099B096C157D058E059F05A8F3FF90C4
:10119000EF90DF90CF90BF90AF909F908F90089589
:1011A000982F977021E030E0092E01C0220F0A9499
:1011B000EAF786958695869581F0813089F08230B0
:1011C00091F08330D1F412C080812095822302C037
:1011D0008081822B80839FBF0895EAE2F0E008C0FF
:1011E000E7E2F0E005C0E4E2F0E002C0E1E2F0E0B6
:1011F0009FB7F894662341F3EBCF0895982F97702B
:1012000021E030E001C0220F9A95EAF78695869595
:10121000869539F0813041F0823049F0833051F0C9
:101220000895E9E2F0E008C0E6E2F0E005C0E3E29C
:10123000F0E002C0E0E2F0E09081922381E009F466
:1012400080E00895982F977021E030E0092E01C0CA
:10125000220F0A94EAF786958695869581F081306B
:1012600089F0823091F08330D1F412C080812095D2
:10127000822302C08081822B80839FBF0895EBE28E
:10128000F0E008C0E8E2F0E005C0E5E2F0E002C00E
:10129000E2E2F0E09FB7F894662341F3EBCF0895C4
:1012A0000E94CB140E94DB000E94B303FDCFFC011F
:1012B00020893189C9010895DC0150962D913C9116
:1012C0005197232B49F05496ED91FC915597E80FD7
:1012D000F91F268930E002C02FEF3FEFC9010895C2
:1012E000FC01118A108A158A148A138A128A0895B9
:1012F000FC0124813581C9010895FC0124813581D7
:10130000C9010895FC0180899189892BD1F03FB7EB
:10131000F894808991890197918B808B8489958934
:10132000DF01A80FB91F56962C91019680329105C6
:101330001CF4958B848B02C0158A148A3FBF30E061
:1013400002C02FEF3FEFC9010895EF92FF921F9364
:10135000CF93DF931F92CDB7DEB77C01D701DA962A
:101360008D919C91DB974097C8F71FB7F894D6965C
:10137000ED91FC91D7970190F081E02DC701C696C1
:101380006983099569814097C8F4F70182AD93ADEF
:10139000019693AF82AF84AD95ADE80FF91FE05C85
:1013A000FF4F60830196D701DD969C938E93DC9767
:1013B000409724F0DD961C921E92DC97F701EA5AC2
:1013C000FF4F0190F081E02D8081806280831FBFFC
:1013D00081E090E00F90DF91CF911F91FF90EF900F
:1013E0000895665F7F4F680F791FCB010895665F90
:1013F0007F4F680F791FCB010895665F7F4F680F9D
:10140000791FCB010895665F7F4F680F791FCB016D
:1014100008951F920F920FB60F9211242F938F935E
:101420009F93AF93BF93EF93FF938091A20290910C
:10143000A302892B21F1E091C202F091C3028091B5
:10144000A2029091A30201979093A3028093A2021B
:101450008091A6029091A702DC01A256BD4F1A9678
:101460002C910196803191052CF49093A7028093E2
:10147000A60204C01092A7021092A60220838091B7
:10148000A2029091A302892B31F4E091BE02F09167
:10149000BF0288E98083FF91EF91BF91AF919F9147
:1014A0008F912F910F900FBE0F901F9018951F9244
:1014B0000F920FB60F9211242F938F939F93AF9398
:1014C000BF93EF93FF938091460290914702892B3F
:1014D00021F1E0916602F0916702809146029091BD
:1014E00047020197909347028093460280914A02F7
:1014F00090914B02DC01AE5BBD4F1A962C91019688
:10150000803191052CF490934B0280934A0204C0E1
:1015100010924B0210924A022083809146029091D1
:101520004702892B31F4E0916202F091630288E96D
:101530008083FF91EF91BF91AF919F918F912F91F8
:101540000F900FBE0F901F901895FC01262F13824D
:10155000128248EE53E060E070E044835583668376
:10156000778381E891E09183808381E991E0958799
:10157000848780E290E097878687118A108A158A8F
:10158000148A138A128A8BE991E097AB86AB80E1CB
:1015900090E091AF80AF13AE12AE17AE16AE15AE9F
:1015A00014AE222321F0213009F052C028C0DF01FF
:1015B000A05BBF4F85EC90E08D939C93DF01AE5A0A
:1015C000BF4F84EC90E08D939C93DF01AC5ABF4FEA
:1015D00080EC90E08D939C93DF01AA5ABF4F81EC81
:1015E00090E08D939C93DF01A85ABF4F82EC90E06E
:1015F0008D939C93E65AFF4F86EC90E027C0DF0165
:10160000A05BBF4F8DEC90E08D939C93DF01AE5AB1
:10161000BF4F8CEC90E08D939C93DF01AC5ABF4F91
:1016200088EC90E08D939C93DF01AA5ABF4F89EC20
:1016300090E08D939C93DF01A85ABF4F8AEC90E015
:101640008D939C93E65AFF4F8EEC90E091838083BC
:1016500008953F924F925F926F927F928F929F92E6
:10166000AF92BF92CF92DF92EF92FF920F931F93B0
:10167000CF93DF93EC014A015B01122F3E2C60E017
:1016800072E18AE790E0A50194010E94381969018E
:101690007A0184E0C80ED11CE11CF11C83E0F694B1
:1016A000E794D794C7948A95D1F760E074E284EF09
:1016B00090E0A50194010E94381929013A0194E0B3
:1016C000490E511C611C711C93E0769467945794E9
:1016D00047949A95D1F7A30192014427552760E8D2
:1016E00074E88EE190E00E945A195901A818B908CF
:1016F000B7FE03C0B194A194B108A7019601442795
:10170000552760E472E48FE090E00E945A1928198E
:10171000390937FF03C0319521953109FE01EC5A93
:10172000FF4F0190F081E02DA216B3063CF482E059
:101730008083620181E0C81AD10804C0108291E060
:10174000C91AD1081630C1F018F4153099F405C043
:10175000173029F0193071F404C080E00EC084E025
:101760000CC0FE01EA5AFF4F0190F081E02D80810C
:101770008460808386E001C082E0023009F48860E2
:1017800091E0391621F092E0391204C002C0806362
:1017900001C08062FE01E85AFF4F0190F081E02D08
:1017A0008083FE01E05BFF4F0190F081E02DD0824D
:1017B000FE01EE5AFF4F0190F081E02DC082CA5A1F
:1017C000DF4FE881F98188E98083DF91CF911F9114
:1017D0000F91FF90EF90DF90CF90BF90AF909F90D0
:1017E0008F907F906F905F904F903F9008950F93F0
:1017F0001F93CF93DF931F92CDB7DEB78C01DC012F
:10180000ED91FC910190F081E02D6983099569814A
:101810008097D0F4F8018481958101969583848323
:1018200086819781E80FF91F6287019680329105C2
:1018300034F4D80117969C938E93169703C0F80141
:101840001782168281E001C080E00F90DF91CF9176
:101850001F910F9108951F920F920FB60F921124AE
:101860002F933F934F935F936F937F938F939F93A8
:10187000AF93BF93EF93FF93E0916602F0916702FD
:10188000608188E192E00E94F70BFF91EF91BF9198
:10189000AF919F918F917F916F915F914F913F9108
:1018A0002F910F900FBE0F901F9018951F920F92BF
:1018B0000FB60F9211242F933F934F935F936F9323
:1018C0007F938F939F93AF93BF93EF93FF93E09199
:1018D000C202F091C302608184E792E00E94F70B9C
:1018E000FF91EF91BF91AF919F918F917F916F91F8
:1018F0005F914F913F912F910F900FBE0F901F90CE
:10190000189560E088E692E00E94A50A61E08CE00C
:1019100092E00C94A50A1F93CF93DF93182FEB014D
:10192000209721F460E00E94220940E0143079F110
:10193000153029F11630E9F1173099F1133169F0BA
:10194000143109F044C011C060E001C061E0812F92
:10195000DF91CF911F910C94220960E086E193E022
:101960000E94A017AE0160E007C061E086E193E04D
:101970000E94A017AE0161E086E193E023C060E021
:1019800084EF92E00E94A017AE0160E007C061E022
:1019900084EF92E00E94A017AE0161E084EF92E034
:1019A00011C060E082ED92E00E94A017AE0160E0FD
:1019B00007C061E082ED92E00E94A017AE0161E0F5
:1019C00082ED92E0DF91CF911F910C94CD17C0383A
:1019D000D10508F4B9CFBACF8091C7029091C8025F
:1019E000A091C902B091CA02892B8A2B8B2B51F18D
:1019F0009091C402E091C502F091C60280818927CE
:101A000080838091C7029091C802A091C902B091D1
:101A1000CA02181619061A061B0644F58091C70259
:101A20009091C802A091C902B091CA020197A10980
:101A3000B1098093C7029093C802A093C902B093E2
:101A4000CA02089540E061E082ED92E00E943B17F7
:101A50002091C402E091C502F091C602808190E01D
:101A600030E02095309582239323808308958091E0
:101A7000CE029091CF02A091D002B091D102892BD9
:101A80008A2B8B2B51F19091CB02E091CC02F091FB
:101A9000CD028081892780838091CE029091CF02F0
:101AA000A091D002B091D102181619061A061B0691
:101AB00044F58091CE029091CF02A091D002B091D6
:101AC000D1020197A109B1098093CE029093CF0270
:101AD000A093D002B093D102089540E061E084EF7A
:101AE00092E00E943B172091CB02E091CC02F09152
:101AF000CD02808190E030E02095309582239323C1
:101B0000808308951F93CF93DF93182F8091200136
:101B1000A1E2B1E0ED0108C09991911305C0F0E098
:101B2000E458FF4FC49187C0EC2FEA1BE817A0F3DD
:101B300020E030E012C0A9019D912F5F3F4F9F3FF1
:101B400061F4DA01AF5DBE4F1C93F0E0E458FF4F43
:101B5000C491CF3F31F4CFEF6EC0E22F281758F376
:101B6000FACFC13021F0C23009F065C033C064E063
:101B700084EF92E00E948A1760E084EF92E00E9476
:101B80008D16183068F0812F8850883060F08850AA
:101B9000883060F08850883060F422E230E00BC07A
:101BA0002BE230E008C028E230E005C025E230E05A
:101BB00002C020E030E03093CD022093CC021770B9
:101BC00021E030E0012E01C0220F0A94EAF72093B1
:101BD000CB0231C062E082ED92E00E948A1760E0A1
:101BE00082ED92E00E948D16183068F0812F8850A7
:101BF000883060F08850883060F08850883060F419
:101C000022E230E00BC02BE230E008C028E230E0F6
:101C100005C025E230E002C020E030E03093C6028B
:101C20002093C502177021E030E001C0220F1A9501
:101C3000EAF72093C4028C2FDF91CF911F91089572
:101C4000CF93C82F809121018C1307C0ECE7F0E0FF
:101C5000E4918FEF8093210101C0EFEF8091220189
:101C60008C1306C0EDE7F0E0E4918FEF8093220142
:101C7000E13019F0E23081F407C020E040E050E0AC
:101C800061E084EF92E006C020E040E050E061E0D7
:101C900082ED92E00E94601760E08C2FCF910C944F
:101CA00022092F923F924F925F926F927F928F9272
:101CB0009F92AF92BF92CF92DF92EF92FF921F93CB
:101CC000CF93DF9300D000D0CDB7DEB7F82E1B0145
:101CD00029013A0161157105B9F40F900F900F9029
:101CE0000F90DF91CF911F91FF90EF90DF90CF90F9
:101CF000BF90AF909F908F907F906F905F904F902C
:101D00003F902F900C94200E0E94820D182F61E0BE
:101D10008F2D0E94D00811160CF037C14101A12C63
:101D2000B12C60E072E18AE790E0A50194010E9485
:101D30005A19123009F0A5C029833A834B835C837A
:101D400069017A0181E0C81AD108E108F108EFEFD2
:101D5000CE16D104E104F10409F008F484C060E473
:101D600072E48FE090E0A50194010E945A19690184
:101D70007A01F1E0CF1AD108E108F1088FEFC81617
:101D8000D104E104F10409F008F46FC060E970EDDA
:101D900083E090E0A50194010E945A1969017A013B
:101DA000E1E0CE1AD108E108F108FFEFCF16D10427
:101DB000E104F10409F008F45AC068E478EE81E027
:101DC00090E0A50194010E945A1969017A0181E00D
:101DD000C81AD108E108F108EFEFCE16D104E104EA
:101DE000F10409F008F445C064E274EF80E090E08B
:101DF000A50194010E945A1969017A01F1E0CF1AF4
:101E0000D108E108F1088FEFC816D104E104F1040C
:101E100091F188F162E17AE780E090E0A501940118
:101E20000E945A1969017A01E1E0CE1AD108E1084D
:101E3000F108FFEFCF16D104E104F104F1F0E8F06E
:101E400069817A818B819C8120E034E040E050E020
:101E50000E945A1969017A0181E0C81AD108E10883
:101E6000F10867E00BC061E009C062E007C063E011
:101E700005C064E003C065E001C066E082ED92E069
:101E800023C069017A01E1E0CE1AD108E108F10826
:101E9000C114D104F1E0EF06F10488F068E478EEB3
:101EA00081E090E0A50194010E945A1969017A012C
:101EB00081E0C81AD108E108F10864E001C061E0DE
:101EC000113021F484EF92E00E948D161414150451
:101ED0001604170484F4D101AA0FBB1FA3019201B9
:101EE0000E94191928EE33E040E050E00E945A1990
:101EF00049015A0104C088248A94982C5401113055
:101F000021F0123009F041C015C0A60160E084EF55
:101F100092E00E94CD178092CE029092CF02A092C2
:101F2000D002B092D10221E047E35DE061E084EFAE
:101F300092E014C0A60160E082ED92E00E94CD170D
:101F40008092C7029092C802A092C902B092CA02BF
:101F500021E04CEE5CE061E082ED92E00F900F90AA
:101F60000F900F90DF91CF911F91FF90EF90DF9036
:101F7000CF90BF90AF909F908F907F906F905F9029
:101F80004F903F902F900C9460170F900F900F90F0
:101F90000F90DF91CF911F91FF90EF90DF90CF9046
:101FA000BF90AF909F908F907F906F905F904F9079
:101FB0003F902F900895CF92DF92EF92FF920F9370
:101FC0001F93CF93DF936C01EB017A01E60EF71EAE
:101FD00000E010E00BC06991D601ED91FC910190F9
:101FE000F081E02DC6010995080F191FCE15DF05F8
:101FF00091F7C801DF91CF911F910F91FF90EF9062
:10200000DF90CF9008956115710581F0DB010D908F
:102010000020E9F7AD0141505109461B570BDC0187
:10202000ED91FC910280F381E02D099480E090E035
:102030000895DC01ED91FC910190F081E02D09946F
:102040000C940310DC01ED91FC91DB0114964D9191
:102050005C9115976D917C910280F381E02D09943C
:102060000F931F93CF93DF93EC016DE00E94191043
:102070008C016AE0CE010E9419109C01200F311FD3
:10208000C901DF91CF911F910F9108950F931F9375
:10209000CF93DF93EC010E9422108C01CE010E94AD
:1020A00030109C01200F311FC901DF91CF911F918A
:1020B0000F9108950F931F93CF93DF93EC010E942C
:1020C00003108C01CE010E9430109801280F391F97
:1020D000C901DF91CF911F910F9108954F925F92A7
:1020E0006F927F929F92AF92BF92CF92DF92EF92C8
:1020F000FF920F931F93CF93DF93CDB7DEB7A197D6
:102100000FB6F894DEBF0FBECDBF5C016A017B0144
:10211000922E19A281E0821710F08AE0982E8E018B
:102120000F5D1F4F492C512C612C712CC701B6013A
:10213000A30192010E9438198C2D929E80191124BE
:10214000015011098A3014F4805D01C0895CF801E6
:10215000808369017A01C114D104E104F10431F7EB
:10216000B801C5010E940310A1960FB6F894DEBF16
:102170000FBECDBFDF91CF911F910F91FF90EF90D8
:10218000DF90CF90BF90AF909F907F906F905F90C7
:102190004F900895CF92DF92EF92FF920F931F938B
:1021A000CF93DF93EC016A017B012115310579F4AE
:1021B000E881F9810190F081E02D642FDF91CF91CA
:1021C0001F910F91FF90EF90DF90CF9009942A30EC
:1021D000310519F477FD0EC02AE0B701A601CE0142
:1021E000DF91CF911F910F91FF90EF90DF90CF90F3
:1021F0000C946E106DE20E9419108C014427552733
:10220000BA014C195D096E097F092AE0CE010E94CE
:102210006E10080F191FC801DF91CF911F910F9108
:10222000FF90EF90DF90CF9008950F931F93CF937F
:10223000DF93EC019A01AB01662757FD6095762F7D
:102240000E94CA108C01CE010E9430109801280F04
:10225000391FC901DF91CF911F910F910895211569
:10226000310541F4DC01ED91FC910190F081E02D0C
:10227000642F09940C946E100F931F93CF93DF93E8
:10228000EC010E942F118C01CE010E9430109C01A4
:10229000200F311FC901DF91CF911F910F91089538
:1022A000009711F00C94371A08950C949C1900971C
:1022B00011F00C94371A0895AF92BF92CF92DF922B
:1022C000EF92FF920F931F93CF93DF93EC015B018B
:1022D000CA80DB808C819D81C816D90601F5EE800D
:1022E000FF80EC0CFD1CCE14DF04C8F4C701880F7E
:1022F000991F0E949C198C01009789F0FD82EC8245
:10230000CC0CDD1C68857985A6010E94C61B8885DA
:102310009985009711F00E945711198708872A8123
:102320003B818C819D8128173907C0F482E090E0C1
:102330000E949C19FC01D5018D919C919183808311
:102340008A819B819C01220F331FA885B985A20F2A
:10235000B31FED93FC9301969B838A83DF91CF910A
:102360001F910F91FF90EF90DF90CF90BF90AF90B3
:1023700008956F927F928F929F92AF92BF92CF9269
:10238000DF92EF92FF920F931F93CF93DF93CDB71E
:10239000DEB729970FB6F894DEBF0FBECDBF8C0114
:1023A0004B017A010E946614C12CD12C11C0C601C8
:1023B000880F991FD7011896ED91FC911997E80F96
:1023C000F91F808191810E945011BFEFCB1ADB0A67
:1023D000F70182819381C816D90648F313821282CD
:1023E000D8018C9111969C9111976C0114962D91A6
:1023F0003C9115972C0D3D1DF601A12CB12C0AC066
:102400004191552747FD50954815590519F4BFEFDF
:10241000AB1ABB0AE217F30799F7A114B10471F4E0
:102420000E94A01B99878887BE01685F7F4FC70104
:102430000E945C11AA24A394B12C48C0EFEFAE1AFD
:10244000BE0A80E090E040E050E025C0D6012D912A
:102450006D013C01BFEF6B1A7B0A332727FD3095D6
:1024600028153905B9F49C01B801CE0101960E94E6
:10247000211489819A810E94A01B99878887BE01B7
:10248000685F7F4FC7010E945C11CE0101960E94D8
:102490007C12A301C301F8012481358182179307BF
:1024A000A8F2B801CE0101960E94211489819A8177
:1024B0000E94A01B99878887BE01685F7F4FC70174
:1024C0000E945C11CE0101960E947C12C5012996E2
:1024D0000FB6F894DEBF0FBECDBFDF91CF911F9135
:1024E0000F91FF90EF90DF90CF90BF90AF909F90B3
:1024F0008F907F906F900895FC01808191810C9462
:10250000371ACF93DF93EC0188819981009711F0FE
:102510000E94371A198218821D821C821B821A821D
:10252000DF91CF9108950F931F93CF93DF93EC0129
:102530008B016F5F7F4F888199810E94D41A009729
:1025400031F0998388831B830A8381E001C080E096
:10255000DF91CF911F910F910895CF93DF93EC01FD
:1025600088819981892B31F08A819B818617970711
:1025700008F00CC0CE010E949312882349F08C8190
:102580009D81892B19F4E881F981108281E001C0D5
:1025900080E0DF91CF910895EF92FF920F931F9308
:1025A000CF93DF93EC017B018A01BA010E94AD1247
:1025B000811104C0CE010E94811207C01D830C83CB
:1025C000B701888199810E94D81BCE01DF91CF91FC
:1025D0001F910F91FF90EF900895DC0111961C92CE
:1025E0001E9213961C921E92129715961C921E9282
:1025F000149716961C926115710559F0DB010D9028
:102600000020E9F7AD0141505109461B570B0C94CE
:10261000CC120895CF93DF93EC01FB018617970747
:1026200061F0608171816115710529F044815581E6
:102630000E94CC1202C00E948112CE01DF91CF9184
:102640000895FC0111821082138212821582148275
:1026500016820C940A13CF93DF93D82FC92F6115DC
:10266000710561F0DB010D900020E9F7AD014150EB
:102670005109461B570B0E94CC1202C00E948112C6
:102680008D2F9C2FDF91CF9108950F931F93CF93A0
:10269000DF93CDB7DEB762970FB6F894DEBF0FBEFB
:1026A000CDBF8C01CB01F8011182108213821282FE
:1026B00015821482168250E0BE016F5F7F4F0E9428
:1026C000DF1BBE016F5F7F4FC8010E942B13629614
:1026D0000FB6F894DEBF0FBECDBFDF91CF911F9133
:1026E0000F910895CF93DF9300D0CDB7DEB7FC01F3
:1026F00011821082138212821582148216826983DB
:102700001A82BE016F5F7F4F0E942B130F900F90B4
:10271000DF91CF910895EF92FF920F931F93CF9384
:10272000DF93EC017B010C811D816115710511F4B2
:1027300080E016C04115510591F0040F151FB80136
:102740000E94AD128823A1F3288139818C819D815B
:10275000B701820F931F0E94D81B1D830C8381E059
:10276000DF91CF911F910F91FF90EF900895FB01A2
:1027700044815581608171810C948B13CF93DF93D9
:10278000DC01ED91FC91EB01A881B981309711F04A
:102790001097C9F4109759F0EB012C813D81232B40
:1027A00031F02C9130E031952195310914C03097EA
:1027B00081F0DC0114968D919C911597892B49F03D
:1027C000208130E008C0BD01CF01DF91CF910C9492
:1027D000CF1B20E030E0C901DF91CF910895FC01CB
:1027E00044815581FB01248135814217530729F427
:1027F0000E94BE1321E0892B09F020E0822F08956A
:10280000FC0184819581DB0114964D915C911597B3
:1028100084179507A0F0208131812115310579F0C9
:102820006D917C916115710551F0841B950B820FA0
:10283000931F0E94CF1B9C0181E0232B09F080E0B5
:102840000895BF92CF92DF92EF92FF920F931F9362
:10285000CF93DF936C017B01EA01890124173507CF
:1028600020F48D2FE901042F182F6AE571E0C601CD
:102870000E94ED12D70114968D919C9115978C179B
:102880009D07C8F08017910708F48C01D701ED91DE
:10289000FC911197E00FF11FB08010826D917C9137
:1028A0006C0F7D1FC6010E942B13D701ED91FC9187
:1028B000E00FF11FB082C601DF91CF911F910F9100
:1028C000FF90EF90DF90CF90BF900895AF92BF92AE
:1028D000CF92DF92EF92FF920F931F93CF93DF93EC
:1028E0006C01DC01ED90FC901197E114F10409F406
:1028F00047C014960D911C9115970115110509F407
:102900003FC05701E501BFEFAB1ABB0A8881992789
:1029100087FD90950E94BE1B892BA1F701501109DC
:102920000E0D1F1DF8018081992787FD90950E944B
:10293000BE1B892B69F40F5F1F4F0C1B1D0BD601AB
:1029400015961C930E931497EC16FD0650F404C0D4
:102950000C171D0790F4EFCFA801BE01C7010E941C
:10296000C61BD601ED91FC91119714968D919C9107
:102970001597E80FF91F108203C001501109D2CF3B
:10298000DF91CF911F910F91FF90EF90DF90CF904B
:10299000BF90AF90089563E086E193E00E948A17AC
:1029A00021E047E658E060E086E193E00E9460178E
:1029B00064E086E193E00E948D1661E084EF92E08E
:1029C0000E948A1764E084EF92E00E948D1661E015
:1029D00082ED92E00E948A1764E082ED92E00E940C
:1029E0008D16789408951F920F920FB60F921124AE
:1029F0002F933F934F935F936F937F938F939F9307
:102A0000AF93BF93EF93FF93E0913003F0913103C5
:102A1000309709F00995FF91EF91BF91AF919F9188
:102A20008F917F916F915F914F913F912F910F9077
:102A30000FBE0F901F9018951F920F920FB60F9216
:102A400011242F933F934F935F936F937F938F93B3
:102A50009F93AF93BF93EF93FF93E0913203F09175
:102A60003303309709F00995FF91EF91BF91AF9132
:102A70009F918F917F916F915F914F913F912F9196
:102A80000F900FBE0F901F9018951F920F920FB6C8
:102A90000F9211242F933F934F935F936F937F93E4
:102AA0008F939F93AF93BF93EF93FF93E0912E0388
:102AB000F0912F03309709F00995FF91EF91BF91A5
:102AC000AF919F918F917F916F915F914F913F91C6
:102AD0002F910F900FBE0F901F9018951F920F927D
:102AE0000FB60F9211242F933F934F935F936F93E1
:102AF0007F938F939F93AF93BF93EF93FF93E09157
:102B0000EC02F091ED02309709F00995FF91EF91F9
:102B1000BF91AF919F918F917F916F915F914F91F5
:102B20003F912F910F900FBE0F901F9018951F92FD
:102B30000F920FB60F9211242F933F934F935F93F1
:102B40006F937F938F939F93AF93BF93EF93FF9375
:102B5000E091EE02F091EF02309709F00995FF91B4
:102B6000EF91BF91AF919F918F917F916F915F9105
:102B70004F913F912F910F900FBE0F901F9018957E
:102B80001F920F920FB60F9211242F933F934F93E2
:102B90005F936F937F938F939F93AF93BF93EF93C5
:102BA000FF93E091EA02F091EB02309709F009956A
:102BB000FF91EF91BF91AF919F918F917F916F9115
:102BC0005F914F913F912F910F900FBE0F901F90EB
:102BD00018951F920F920FB60F9211242F933F93C7
:102BE0004F935F936F937F938F939F93AF93BF9315
:102BF000EF93FF93E0910E03F0910F03309709F0EC
:102C00000995FF91EF91BF91AF919F918F917F9126
:102C10006F915F914F913F912F910F900FBE0F9049
:102C20001F9018951F920F920FB60F9211242F9399
:102C30003F934F935F936F937F938F939F93AF9344
:102C4000BF93EF93FF93E0911003F091110330973E
:102C500009F00995FF91EF91BF91AF919F918F91ED
:102C60007F916F915F914F913F912F910F900FBE88
:102C70000F901F9018951F920F920FB60F9211246C
:102C80002F933F934F935F936F937F938F939F9374
:102C9000AF93BF93EF93FF93E0910C03F0910D037B
:102CA000309709F00995FF91EF91BF91AF919F91F6
:102CB0008F917F916F915F914F913F912F910F90E5
:102CC0000FBE0F901F9018951F920F920FB60F9284
:102CD00011242F933F934F935F936F937F938F9321
:102CE0009F93AF93BF93EF93FF93E0911403F09101
:102CF0001503309709F00995FF91EF91BF91AF91BE
:102D00009F918F917F916F915F914F913F912F9103
:102D10000F900FBE0F901F901895DC012C91615001
:102D2000223039F4673068F4E62FF0E0EF55FE4FBB
:102D300006C0693030F4E62FF0E0E855FE4F208100
:102D400001C020E0DC011A96ED91FC911B97808177
:102D5000887F822B80830895CF93DF93EC01688373
:102D6000613011F120F0623009F06CC048C01B8264
:102D70001A8286E490E09D838C838EE690E09F83A8
:102D80008E8384E490E09987888785E490E09B8730
:102D90008A871D861C8687E490E09F878E87198A24
:102DA000188A88E490E022C08FE690E09F838E83AB
:102DB00085E890E09B838A8384E890E09D838C8300
:102DC00080E890E09987888781E890E09B878A87F0
:102DD00089E890E09D878C8788E890E09F878E87C0
:102DE0008BE890E0998B888B8AE890E09B8B8A8BAC
:102DF0001D8A1C8A1F8A1E8A82E0898323C01B8247
:102E00001A8282EB90E09D838C8380E790E09F8321
:102E10008E8380EB90E09987888781EB90E09B8799
:102E20008A871D861C8683EB90E09F878E87198A90
:102E3000188A84EB90E09B8B8A8B1D8A1C8A1F8AE0
:102E40001E8A698360E0CE010E948D16EA81FB81B3
:102E5000309709F01082EC81FD811082198E188E56
:102E60001B8E1A8E1D8E1C8E1F8E1E8E19A218A2EE
:102E7000DF91CF91089551E0411101C050E06530DC
:102E8000F0F4E62FF0E0EF54FE4F408147FD17C00D
:102E9000DC011696ED91FC911797808121E030E0DE
:102EA000042E01C0220F0A94EAF720952823852FCB
:102EB000042E01C0880F0A94EAF7282B2083089576
:102EC000623099F028F4662341F06130C9F409C0FA
:102ED000633079F06430A1F410C0FC01518F408F51
:102EE0000FC0FC01538F428F0BC0FC01558F448FE4
:102EF00007C0FC01578F468F03C0FC0151A340A3BC
:102F0000452B11F440E003C0222319F041E00C945A
:102F10003B170895DC011896ED91FC9119973081CB
:102F2000262F23703C7F232B20831A96ED91FC9152
:102F30001B9780816C70660F877E682B6083089575
:102F4000FC018181681740F59081992311F092303E
:102F500011F4813049F0662329F0613029F06230A4
:102F600031F404C026E003C024E001C022E0008464
:102F7000F185E02D308183E090E0022E01C0880FC2
:102F80000A94EAF7809583234370022E01C0440F10
:102F90000A94EAF7842B80830895FC0181816817E5
:102FA000F8F4611109C0A485B585109709F05C9308
:102FB0000684F785E02D13C0613049F4A089B189FA
:102FC000109709F05C930288F389E02D08C0623005
:102FD00039F4A489B5895C930688F789E02D40838C
:102FE000089560E086E193E00E94AC1661E084EF12
:102FF00092E00E94AC1662E082ED92E00C94AC1676
:1030000040D008F481E00895E89409C097FB3EF4AD
:1030100090958095709561957F4F8F4F9F4F992325
:10302000A9F0F92F96E9BB279395F69587957795A3
:103030006795B795F111F8CFFAF4BB0F11F460FF63
:103040001BC06F5F7F4F8F4F9F4F16C0882311F0BB
:1030500096E911C0772321F09EE8872F762F05C0CF
:10306000662371F096E8862F70E060E02AF09A956A
:10307000660F771F881FDAF7880F9695879597F95F
:103080000895990F0008550FAA0BE0E8FEEF1616F9
:103090001706E807F907C0F012161306E407F5074C
:1030A00098F0621B730B840B950B39F40A2661F0C0
:1030B000232B242B252B21F408950A2609F4A14063
:1030C000A6958FEF811D811D089597F99F6780E870
:1030D00070E060E008959FEF80EC089500240A946A
:1030E0001616170618060906089500240A941216E3
:1030F0001306140605060895092E0394000C11F416
:10310000882352F0BB0F40F4BF2B11F460FF04C0C2
:103110006F5F7F4F8F4F9F4F089557FD9058440F1B
:10312000551F59F05F3F71F04795880F97FB991F26
:1031300061F09F3F79F087950895121613061406E3
:10314000551FF2CF4695F1DF08C016161706180670
:10315000991FF1CF86957105610508940895E8944B
:10316000BB2766277727CB0197F908950BD0C4CFEB
:10317000B5DF28F0BADF18F0952309F0A6CFABCF62
:103180001124EECFCADFA0F3959FD1F3950F50E045
:10319000551F629FF001729FBB27F00DB11D639F09
:1031A000AA27F00DB11DAA1F649F6627B00DA11DAF
:1031B000661F829F2227B00DA11D621F739FB00D55
:1031C000A11D621F839FA00D611D221F749F3327C5
:1031D000A00D611D231F849F600D211D822F762F5E
:1031E0006A2F11249F5750408AF0E1F088234AF05B
:1031F000EE0FFF1FBB1F661F771F881F91505040A7
:10320000A9F79E3F510570F060CFAACF5F3FECF366
:10321000983EDCF3869577956795B795F795E79592
:103220009F5FC1F7FE2B880F911D9695879597F9A3
:1032300008950E947619A59F900DB49F900DA49FAC
:10324000800D911D1124089597FB072E16F400940C
:1032500007D077FD09D00E94821907FC05D03EF403
:10326000909581959F4F0895709561957F4F089532
:10327000A1E21A2EAA1BBB1BFD010DC0AA1FBB1F7A
:10328000EE1FFF1FA217B307E407F50720F0A21BEC
:10329000B30BE40BF50B661F771F881F991F1A9459
:1032A00069F760957095809590959B01AC01BD0183
:1032B000CF010895052E97FB16F4009407D057FD13
:1032C0000DD00E94381907FC09D07EF490958095A6
:1032D000709561957F4F8F4F9F4F08955095409502
:1032E000309521953F4F4F4F5F4F0895A29FB001FA
:1032F000B39FC001A39F01D0B29F700D811D112407
:10330000911D0895AA1BBB1B51E107C0AA1FBB1F3B
:10331000A617B70710F0A61BB70B881F991F5A9561
:10332000A9F780959095BC01CD010895EE0FFF1F80
:103330000590F491E02D09940F931F93CF93DF93A1
:103340008230910510F482E090E0E0913A03F09130
:103350003B0320E030E0C0E0D0E023C04081518159
:1033600048175907A8F04817590761F482819381DB
:10337000209719F09B838A832EC090933B03809300
:103380003A0329C02115310529F04217530710F0DF
:10339000A90102C0BE01DF0102811381EF019A0180
:1033A000F8013097D9F62115310509F1281B390BA1
:1033B0002430310590F412968D919C9113976115EC
:1033C000710521F0FB019383828304C090933B033A
:1033D00080933A03FD01329644C0FD01E20FF31FD2
:1033E00081939193225031092D933C933AC02091BF
:1033F000380330913903232B41F42091020130919D
:103400000301309339032093380320910001309158
:1034100001012115310541F42DB73EB7409104015A
:1034200050910501241B350BE0913803F0913903CD
:10343000E217F307A0F42E1B3F0B2817390778F08B
:10344000AC014E5F5F4F2417350748F04E0F5F1FEA
:1034500050933903409338038193919302C0E0E085
:10346000F0E0CF01DF91CF911F910F910895EF927E
:10347000FF920F931F93CF93DF93009709F48FC0B0
:10348000DC01129713961C921E921297E0903A0359
:10349000F0903B03E114F10489F42D913C911197D4
:1034A000280F391F809138039091390382179307B1
:1034B00089F5B0933903A093380371C0E70120E088
:1034C00030E001C0EA01CA17DB0738F44A815B81AA
:1034D0009E0141155105B1F722C0BC01625071092E
:1034E000FB01D383C28300811181AC01400F511FC6
:1034F0004C175D0761F448815981400F511F4E5FA1
:103500005F4F518340834A815B81538342832115FE
:10351000310529F4B0933B03A0933A0340C0F9016D
:10352000B383A283E90169917991C60FD71FAC17C4
:10353000BD0779F4DC015E914E91460F571F4E5F37
:103540005F4F5183408312968D919C911397938383
:103550008283A0E0B0E002C0D7017C01F701828144
:1035600093810097C9F7C701029620813181820FAC
:10357000931F20913803309139032817390779F4C4
:10358000109729F410923B0310923A0304C013964B
:103590001C921E921297F0923903E0923803CDB735
:1035A000DEB7E6E00C94591CA0E0B0E0EAEDFAE1E9
:1035B0000C94371CEC01009729F4CB010E949C1954
:1035C000EC01B8C0DC01A60FB71FFC013297AE17A3
:1035D000BF0718F4C0E0D0E0ADC00081118106172C
:1035E0001707B0F00530110508F4A4C0C80104970E
:1035F0008617970708F49EC002501109061B170B87
:103600000D931D9371836083CD010E94371A92C080
:103610007B01E01AF10A5C01A00EB11EE0913A03B1
:10362000F0913B03812C912C80E090E04CC0EA1596
:10363000FB05F1F5408151816A0122E0C20ED11CE7
:10364000CE14DF04A8F19A012E193F09790169010E
:1036500032E0C30ED11C2EEFA22EBB24BA94AC0EC6
:10366000BD1E25E0C216D10478F042815381139625
:103670005C934E9312971196FC92EE92F501718332
:1036800060833A2F2B2F09C00E5F1F4F040F151FA9
:10369000D5010D931C9332812381009721F0FC0109
:1036A0003283238347C030933A0320933B0342C0C5
:1036B000808191818816990608F44C0152814381DA
:1036C000CF01E52FF42F309709F0B1CF8091380367
:1036D000909139038A159B05F1F486169706D8F464
:1036E0008091000190910101009741F48DB79EB740
:1036F0002091040130910501821B930BA817B90793
:1037000008F068CFB0933903A0933803FE013297D5
:10371000718360830FC0CB010E949C197C010097CC
:1037200009F458CFA801BE010E94C61BCE010E9419
:10373000371AE701CE01CDB7DEB7ECE00C94531C8D
:10374000FC0188279927E89421912032E9F3293058
:1037500010F02E30C8F32B3241F02D3239F468943A
:1037600004C00E94001C820F911D219120532A3019
:10377000C0F31EF4909581959F4F089591115EC0FE
:10378000803219F089508550D0F70895FB01DC0193
:1037900002C001900D9241505040D8F70895FB01AE
:1037A000DC018D91019080190110D9F3990B0895D6
:1037B000FB01DC0101900D920020E1F70895FB016F
:1037C0009F01E8944230C4F04532B4F44A3029F401
:1037D00097FB1EF4909581959F4F642F77270E9449
:1037E0008219805D8A330CF0895D8193CB0100974B
:1037F000A1F716F45DE251931082C9010C94211CCB
:103800007AE0979F902D879F802D910D1124089528
:10381000F999FECF92BD81BDF89A992780B5089598
:10382000262FF999FECF1FBA92BD81BD20BD0FB6DC
:10383000F894FA9AF99A0FBE019608959927882765
:103840000895DC01FC01672F71917723E1F732972E
:1038500004C07C916D9370836291AE17BF07C8F36B
:1038600008952F923F924F925F926F927F928F9224
:103870009F92AF92BF92CF92DF92EF92FF920F93FF
:103880001F93CF93DF93CDB7DEB7CA1BDB0B0FB609
:10389000F894DEBF0FBECDBF09942A8839884888C6
:1038A0005F846E847D848C849B84AA84B984C8845C
:1038B000DF80EE80FD800C811B81AA81B981CE0F53
:1038C000D11D0FB6F894DEBF0FBECDBFED01089538
:1038D00010E0C4E8D0E004C0FE010E9498192296CE
:0A38E000C638D107C9F7F894FFCFEE
:1038EA0000003C0320000102000E00050403090841
:1038FA0007063132333435363738392A3023010155
:10390A0001FFFF6164640075706461746500646539
:10391A006C6574650064656C657465616C6C0072D5
:10392A0065636F7665720049276D20616C697665FB
:10393A0000736F756E64002A002300726561636804
:10394A006564004431005331005032004D310000AB
:10395A000000006D007F0271008B00B800000000BB
:10396A0000A509DB0F57095C0982097009000000EC
:10397A00007D09FD09030A000000007809F109F732
:10398A0009010203040506070102000300040506F3
:06399A0007000102030515
:00000001FF
