:100000000C9440000C9468000C9468000C946800F8
:100010000C9468000C9468000C9468000C946800C0
:100020000C9468000C9441060C946A060C94930698
:100030000C9437070C94BC060C94E5060C940E0740
:100040000C94C6050C94EF050C9418060C946800EB
:100050000C946B040C941E020C9468000C946800C1
:100060000C9468000C9468000C9468000C94680070
:100070000C9440040C946C020C9468009604C40820
:1000800011241FBECFEFD0E1DEBFCDBF11E0A0E055
:10009000B1E0E2E3F2E102C005900D92A836B107AB
:1000A000D9F712E0A8E6B1E001C01D92A639B10768
:1000B000E1F710E0C0E8D0E004C02297FE010E9402
:1000C0001309CC37D107C9F70E9465010C941709B1
:1000D0000C9400000F931F93CF93DF93EB018A01E1
:1000E00042E0BC018DE00E94A00442E0BE018CE031
:1000F0000E94A00442E0B8018AE0DF91CF911F91F5
:100100000F910C94A0040F931F9380916D018111A6
:100110001EC0339B4CC00E943101609369017093F3
:100120006A0180936B0190936C0111E010936D0153
:1001300040E050E06FEF70E080E090E00E946A00E5
:1001400010936E011092680166E071E01FC0339B4E
:1001500022C00E9431010091690110916A01209131
:100160006B0130916C01601B710B820B930B603340
:10017000754781059105D8F040E050E060E070E0FF
:100180008FEF90E00E946A0064E171E084ED91E0FD
:100190000E945C050CC04FEF50E060E070E080E032
:1001A00090E00E946A0010926E0110926D0164E668
:1001B00070E080E090E01F910F910C944301EF926A
:1001C0000F93E12C01E028E040E855E260E070E0A8
:1001D00084ED91E00E943E0310926D013D9A3C9A9D
:1001E0003A9A3B984FEF50E060E070E080E090E09A
:1001F0000F91EF900C946A008091700190917101C1
:10020000A0917201B091730130916F01232F2D5F86
:100210002D3720F40196A11DB11D05C0232F2A57AB
:100220000296A11DB11D20936F01809370019093E0
:100230007101A0937201B093730180917401909148
:100240007501A0917601B09177010196A11DB11DB4
:100250008093740190937501A0937601B093770118
:1002600008950F931F938FB7F89400917001109128
:10027000710120917201309173018FBFB801C901E2
:100280001F910F9108958F929F92AF92BF92CF923C
:10029000DF92EF92FF926B017C010E9431014B01D2
:1002A0005C010E943101681979098A099B096C1562
:1002B0007D058E059F05A8F3FF90EF90DF90CF900E
:1002C000BF90AF909F908F9008950E9470050E94FC
:1002D000DF000E948300FDCFFC0120893189C90124
:1002E0000895DC0150962D913C915197232B49F0B4
:1002F0005496ED91FC915597E80FF91F268930E04F
:1003000002C02FEF3FEFC9010895FC01118A108A46
:10031000158A148A138A128A0895FC012481358172
:10032000C9010895FC0124813581C9010895FC01AA
:1003300080899189892BD1F03FB7F8948089918980
:100340000197918B808B84899589DF01A80FB91F54
:1003500056962C910196803291051CF4958B848BD6
:1003600002C0158A148A3FBF30E002C02FEF3FEF72
:10037000C9010895EF92FF921F93CF93DF931F92CD
:10038000CDB7DEB77C01D701DA968D919C91DB97D2
:100390004097C8F71FB7F894D696ED91FC91D79780
:1003A0000190F081E02DC701C696698309956981A6
:1003B0004097C8F4F70182AD93AD019693AF82AF39
:1003C00084AD95ADE80FF91FE05CFF4F60830196A7
:1003D000D701DD969C938E93DC97409724F0DD96B1
:1003E0001C921E92DC97F701EA5AFF4F0190F081B0
:1003F000E02D8081806280831FBF81E090E00F90BC
:10040000DF91CF911F91FF90EF900895665F7F4F2E
:10041000680F791FCB010895665F7F4F680F791FC2
:10042000CB010895665F7F4F680F791FCB01089558
:10043000665F7F4F680F791FCB0108951F920F925F
:100440000FB60F9211242F938F939F93AF93BF9367
:10045000EF93FF9380910E0290910F02892B21F16F
:10046000E0912E02F0912F0280910E0290910F02E6
:10047000019790930F0280930E0280911202909147
:100480001302DC01A65FBD4F1A962C9101968031B4
:1004900091052CF4909313028093120204C01092E1
:1004A000130210921202208380910E0290910F028B
:1004B000892B31F4E0912A02F0912B0288E98083A4
:1004C000FF91EF91BF91AF919F918F912F910F90DD
:1004D0000FBE0F901F9018951F920F920FB60F929C
:1004E00011242F938F939F93AF93BF93EF93FF9319
:1004F0008091B2019091B301892B21F1E091D20159
:10050000F091D3018091B2019091B3010197909342
:10051000B3018093B2018091B6019091B701DC01E3
:10052000A255BE4F1A962C910196803191052CF45C
:100530009093B7018093B60104C01092B701109256
:10054000B60120838091B2019091B301892B31F4DF
:10055000E091CE01F091CF0188E98083FF91EF9186
:10056000BF91AF919F918F912F910F900FBE0F90E0
:100570001F901895FC01262F1382128248EE53E03B
:1005800060E070E0448355836683778383E391E082
:100590009183808383E491E09587848780E290E073
:1005A00097878687118A108A158A148A138A128A75
:1005B0008DE491E097AB86AB80E190E091AF80AFA6
:1005C00013AE12AE17AE16AE15AE14AE222321F046
:1005D000213009F052C028C0DF01A05BBF4F85EC7D
:1005E00090E08D939C93DF01AE5ABF4F84EC90E076
:1005F0008D939C93DF01AC5ABF4F80EC90E08D93BC
:100600009C93DF01AA5ABF4F81EC90E08D939C939D
:10061000DF01A85ABF4F82EC90E08D939C93E65A7D
:10062000FF4F86EC90E027C0DF01A05BBF4F8DEC51
:1006300090E08D939C93DF01AE5ABF4F8CEC90E01D
:100640008D939C93DF01AC5ABF4F88EC90E08D9363
:100650009C93DF01AA5ABF4F89EC90E08D939C9345
:10066000DF01A85ABF4F8AEC90E08D939C93E65A25
:10067000FF4F8EEC90E09183808308953F924F92DC
:100680005F926F927F928F929F92AF92BF92CF9222
:10069000DF92EF92FF920F931F93CF93DF93EC01C2
:1006A0004A015B01122F3E2C60E072E18AE790E084
:1006B000A50194010E94D30869017A0184E0C80E63
:1006C000D11CE11CF11C83E0F694E794D794C79405
:1006D0008A95D1F760E074E284EF90E0A50194017F
:1006E0000E94D30829013A0194E0490E511C611C73
:1006F000711C93E076946794579447949A95D1F738
:10070000A30192014427552760E874E88EE190E048
:100710000E94F5085901A818B908B7FE03C0B194A2
:10072000A194B108A70196014427552760E472E41B
:100730008FE090E00E94F5082819390937FF03C0BF
:10074000319521953109FE01EC5AFF4F0190F0815E
:10075000E02DA216B3063CF482E08083620181E0C2
:10076000C81AD10804C0108291E0C91AD108163005
:10077000C1F018F4153099F405C0173029F019307C
:1007800071F404C080E00EC084E00CC0FE01EA5A9F
:10079000FF4F0190F081E02D80818460808386E0AE
:1007A00001C082E0023009F4886091E0391621F03E
:1007B00092E0391204C002C0806301C08062FE0171
:1007C000E85AFF4F0190F081E02D8083FE01E05B4D
:1007D000FF4F0190F081E02DD082FE01EE5AFF4FD5
:1007E0000190F081E02DC082CA5ADF4FE881F98183
:1007F00088E98083DF91CF911F910F91FF90EF9057
:10080000DF90CF90BF90AF909F908F907F906F9030
:100810005F904F903F9008950F931F93CF93DF9376
:100820001F92CDB7DEB78C01DC01ED91FC910190F8
:10083000F081E02D6983099569818097D0F4F801F2
:100840008481958101969583848386819781E80FC1
:10085000F91F628701968032910534F4D80117960A
:100860009C938E93169703C0F8011782168281E03D
:1008700001C080E00F90DF91CF911F910F910895FB
:100880001F920F920FB60F9211242F933F934F9305
:100890005F936F937F938F939F93AF93BF93EF93E8
:1008A000FF93E091D201F091D301608184E891E05F
:1008B0000E940C04FF91EF91BF91AF919F918F9196
:1008C0007F916F915F914F913F912F910F900FBE4C
:1008D0000F901F9018951F920F920FB60F92112430
:1008E0002F933F934F935F936F937F938F939F9338
:1008F000AF93BF93EF93FF93E0912E02F0912F02FD
:10090000608180EE91E00E940C04FF91EF91BF9115
:10091000AF919F918F917F916F915F914F913F9197
:100920002F910F900FBE0F901F90189560E084EDEF
:1009300091E00E94BA0261E088E791E00C94BA026B
:100940001F93CF93DF93182FEB01209721F460E0E2
:100950000E94980540E0143079F1153029F11630E5
:10096000E9F1173099F1133169F0143109F044C0FD
:1009700011C060E001C061E0812FDF91CF911F9134
:100980000C94980560E084E792E00E947308AE0141
:1009900060E007C061E084E792E00E947308AE0166
:1009A00061E084E792E023C060E082E592E00E948B
:1009B0007308AE0160E007C061E082E592E00E944A
:1009C0007308AE0161E082E592E011C060E080E36F
:1009D00092E00E947308AE0160E007C061E080E32E
:1009E00092E00E947308AE0161E080E392E0DF9143
:1009F000CF911F910C94A008C038D10508F4B9CF4D
:100A0000BACFCF92DF92EF92FF920F931F93CF93C3
:100A1000DF936C01EB017A01E60EF71E00E010E0B7
:100A20000BC06991D601ED91FC910190F081E02D10
:100A3000C6010995080F191FCE15DF0591F7C801EA
:100A4000DF91CF911F910F91FF90EF90DF90CF90AA
:100A500008956115710581F0DB010D900020E9F723
:100A6000AD0141505109461B570BDC01ED91FC9142
:100A70000280F381E02D099480E090E00895DC018C
:100A8000ED91FC910190F081E02D09940F931F935B
:100A9000CF93DF93EC016DE00E943F058C016AE08B
:100AA000CE010E943F059C01200F311FC901DF913B
:100AB000CF911F910F9108950F931F93CF93DF93C1
:100AC000EC010E9429058C01CE010E944605980187
:100AD000280F391FC901DF91CF911F910F91089500
:100AE00063E084E792E00E945D0821E04CEF50E073
:100AF00060E084E792E00E94330864E084E792E0DB
:100B00000E94600761E082E592E00E945D0864E077
:100B100082E592E00E94600761E080E392E00E943B
:100B20005D0864E080E392E00E9460077894089595
:100B3000982F977021E030E0092E01C0220F0A940F
:100B4000EAF786958695869581F0813089F0823026
:100B500091F08330D1F412C080812095822302C0AD
:100B60008081822B80839FBF0895EBE2F0E008C074
:100B7000E8E2F0E005C0E5E2F0E002C0E2E2F0E029
:100B80009FB7F894662341F3EBCF08951F920F921D
:100B90000FB60F9211242F933F934F935F936F9350
:100BA0007F938F939F93AF93BF93EF93FF93E091C6
:100BB0008E02F0918F02309709F00995FF91EF9125
:100BC000BF91AF919F918F917F916F915F914F9165
:100BD0003F912F910F900FBE0F901F9018951F926D
:100BE0000F920FB60F9211242F933F934F935F9361
:100BF0006F937F938F939F93AF93BF93EF93FF93E5
:100C0000E0919002F0919102309709F00995FF91DF
:100C1000EF91BF91AF919F918F917F916F915F9174
:100C20004F913F912F910F900FBE0F901F901895ED
:100C30001F920F920FB60F9211242F933F934F9351
:100C40005F936F937F938F939F93AF93BF93EF9334
:100C5000FF93E0918C02F0918D02309709F0099595
:100C6000FF91EF91BF91AF919F918F917F916F9184
:100C70005F914F913F912F910F900FBE0F901F905A
:100C800018951F920F920FB60F9211242F933F9336
:100C90004F935F936F937F938F939F93AF93BF9384
:100CA000EF93FF93E0914A02F0914B02309709F0E5
:100CB0000995FF91EF91BF91AF919F918F917F9196
:100CC0006F915F914F913F912F910F900FBE0F90B9
:100CD0001F9018951F920F920FB60F9211242F9309
:100CE0003F934F935F936F937F938F939F93AF93B4
:100CF000BF93EF93FF93E0914C02F0914D02309738
:100D000009F00995FF91EF91BF91AF919F918F915C
:100D10007F916F915F914F913F912F910F900FBEF7
:100D20000F901F9018951F920F920FB60F921124DB
:100D30002F933F934F935F936F937F938F939F93E3
:100D4000AF93BF93EF93FF93E0914802F091490274
:100D5000309709F00995FF91EF91BF91AF919F9165
:100D60008F917F916F915F914F913F912F910F9054
:100D70000FBE0F901F9018951F920F920FB60F92F3
:100D800011242F933F934F935F936F937F938F9390
:100D90009F93AF93BF93EF93FF93E0916C02F09119
:100DA0006D02309709F00995FF91EF91BF91AF91D6
:100DB0009F918F917F916F915F914F913F912F9173
:100DC0000F900FBE0F901F9018951F920F920FB6A5
:100DD0000F9211242F933F934F935F936F937F93C1
:100DE0008F939F93AF93BF93EF93FF93E0916E0226
:100DF000F0916F02309709F00995FF91EF91BF9143
:100E0000AF919F918F917F916F915F914F913F91A2
:100E10002F910F900FBE0F901F9018951F920F9259
:100E20000FB60F9211242F933F934F935F936F93BD
:100E30007F938F939F93AF93BF93EF93FF93E09133
:100E40006A02F0916B02309709F00995FF91EF91DA
:100E5000BF91AF919F918F917F916F915F914F91D2
:100E60003F912F910F900FBE0F901F9018951F92DA
:100E70000F920FB60F9211242F933F934F935F93CE
:100E80006F937F938F939F93AF93BF93EF93FF9352
:100E9000E0917202F0917302309709F00995FF9189
:100EA000EF91BF91AF919F918F917F916F915F91E2
:100EB0004F913F912F910F900FBE0F901F9018955B
:100EC000DC012C916150223039F4673068F4E62F50
:100ED000F0E0ED5AFE4F06C0693030F4E62FF0E046
:100EE000E65AFE4F208101C020E0DC011A96ED9108
:100EF000FC911B978081887F822B80830895CF93FC
:100F0000DF93EC016883613011F120F0623009F069
:100F10006CC048C01B821A8286E490E09D838C835B
:100F20008EE690E09F838E8384E490E099878887A3
:100F300085E490E09B878A871D861C8687E490E085
:100F40009F878E87198A188A88E490E022C08FE6EE
:100F500090E09F838E8385E890E09B838A8384E87A
:100F600090E09D838C8380E890E09987888781E872
:100F700090E09B878A8789E890E09D878C8788E846
:100F800090E09F878E878BE890E0998B888B8AE82A
:100F900090E09B8B8A8B1D8A1C8A1F8A1E8A82E0A6
:100FA000898323C01B821A8282EB90E09D838C830D
:100FB00080E790E09F838E8380EB90E0998788871D
:100FC00081EB90E09B878A871D861C8683EB90E0EF
:100FD0009F878E87198A188A84EB90E09B8B8A8B77
:100FE0001D8A1C8A1F8A1E8A698360E0CE010E94C6
:100FF0006007EA81FB81309709F01082EC81FD8166
:101000001082198E188E1B8E1A8E1D8E1C8E1F8EAE
:101010001E8E19A218A2DF91CF91089551E04111BF
:1010200001C050E06530F0F4E62FF0E0ED59FE4FDE
:10103000408147FD17C0DC011696ED91FC91179792
:10104000808121E030E0042E01C0220F0A94EAF7EB
:1010500020952823852F042E01C0880F0A94EAF7D3
:10106000282B20830895623099F028F4662341F0FC
:101070006130C9F409C0633079F06430A1F410C064
:10108000FC01518F408F0FC0FC01538F428F0BC06A
:10109000FC01558F448F07C0FC01578F468F03C05A
:1010A000FC0151A340A3452B11F440E003C02223CF
:1010B00019F041E00C940E080895DC011896ED91AA
:1010C000FC9119973081262F23703C7F232B20839E
:1010D0001A96ED91FC911B9780816C70660F877E4C
:1010E000682B60830895FC018181681740F5908129
:1010F000992311F0923011F4813049F0662329F0E0
:10110000613029F0623031F404C026E003C024E0ED
:1011100001C022E00084F185E02D308183E090E081
:10112000022E01C0880F0A94EAF78095832343704A
:10113000022E01C0440F0A94EAF7842B808308959D
:10114000FC0181816817F8F4611109C0A485B58597
:10115000109709F05C930684F785E02D13C0613089
:1011600049F4A089B189109709F05C930288F3894A
:10117000E02D08C0623039F4A489B5895C930688F3
:10118000F789E02D4083089560E084E792E00E94B3
:101190007F0761E082E592E00E947F0762E080E3E2
:1011A00092E00C947F07A1E21A2EAA1BBB1BFD0143
:1011B0000DC0AA1FBB1FEE1FFF1FA217B307E40736
:1011C000F50720F0A21BB30BE40BF50B661F771F8E
:1011D000881F991F1A9469F760957095809590956E
:1011E0009B01AC01BD01CF010895052E97FB16F4BC
:1011F000009407D057FD0DD00E94D30807FC09D0FA
:101200007EF490958095709561957F4F8F4F9F4F9D
:10121000089550954095309521953F4F4F4F5F4F22
:101220000895EE0FFF1F0590F491E02D0994F894B6
:02123000FFCFEE
:10123200000096022000446F6F72206F70656E6529
:1012420064212100416C65727461206465207075AF
:1012520065727461206162696572746121210000A6
:10126200000000BA0101056C0171019701850100BE
:10127200000000920112021802000000008D010617
:10128200020C020102030405060701020003000426
:08129200050607000102030537
:00000001FF
