:100000000C9442000C946A000C946A000C946A00F0
:100010000C946A000C946A000C946A000C946A00B8
:100020000C946A000C94160C0C943F0C0C94680C05
:100030000C940C0D0C94910C0C94BA0C0C94E30CD5
:100040000C949B0B0C94C40B0C94ED0B0C946A0059
:100050000C9490080C9443060C946A000C946A006B
:100060000C946A000C946A000C946A000C946A0068
:100070000C9465080C9491060C946A00D102BB089C
:10008000990E010311241FBECFEFD0E1DEBFCDBF1B
:1000900011E0A0E0B1E0EEE0F3E202C005900D92C5
:1000A000A039B107D9F713E0A0E9B1E001C01D9272
:1000B000AA30B107E1F710E0C2E8D0E004C022970F
:1000C000FE010E94E80ECC37D107C9F70E948A05CD
:1000D0000C947A110C9400000F931F93CF93DF932D
:1000E000EB018A0142E0BC018DE00E94C50842E0BC
:1000F000BE018CE00E94C50842E0B8018AE0DF91B1
:10010000CF911F910F910C94C508CF92DF92EF927F
:10011000FF920F931F93CF93DF93CDB7DEB72E9748
:100120000FB6F894DEBF0FBECDBF8EE991E00E94FE
:100130002B038823C9F0682FCE0108960E94AE0ACF
:10014000BE01685F7F4F8CEB91E00E94F30ACE0105
:1001500008960E94B7096CEB71E084E492E00E947B
:100160008F0981E08093910180919C01882359F14E
:100170006FE171E0CE0108960E94280ABE01685F17
:100180007F4F8CEB91E00E94520B182FCE01089606
:100190000E94B7091123B9F040E050E06FEF70E022
:1001A0008FEF90E00E946C0010929C0161E271E080
:1001B00084E492E00E94A309429865E271E08CEB2E
:1001C00091E00E94660A64E271E0CE0108960E9406
:1001D000280ABE01685F7F4F8CEB91E00E94520BB2
:1001E000882361F011E02091C0013091C10180911C
:1001F000C7019091C8018217930708F410E0CE015F
:1002000008960E94B709112361F065E271E08CEB5A
:1002100091E00E94660A66E271E084E492E00E9446
:10022000A3092091C0013091C1018091C701909133
:10023000C8012817390709F066C023C04FEF50E006
:1002400060E070E08FEF90E00E946C00429AC092F4
:100250009C0180919101882341F069E271E084E47E
:1002600092E00E94A3091092910110929601EE244F
:10027000E394F12C0F5F1F4FCE0108960E94B7093F
:1002800008C0E12CF12C00E010E087E0D82ECC244F
:10029000C39480911D0190911E010817190724F045
:1002A000FF2009F447C004C0EE2009F421C1F8CFB3
:1002B000609196016F5F609396014AE0CE010896C7
:1002C0000E94800A6CE271E0CE0101960E94280A29
:1002D000BE01685F7F4FCE0101960E94FA0ABC0101
:1002E00084E492E00E948F09CE0101960E94B70932
:1002F000CE0108960E94B70965E271E08CEB91E0AF
:100300000E94660A17C082179307A0F44FEF50E0CF
:1003100060E070E08FEF90E00E946C0080919101AE
:10032000882341F069E271E084E492E00E94A3092D
:100330001092910180919601833050F14FEF50E07F
:100340006FEF70E080E090E00E946C0065E271E089
:100350008CEB91E00E94660A109296016EE271E0C9
:1003600084E492E00E94A30960E375E780E090E0F6
:100370000E94E80440E050E06FEF70E08FEF90E003
:100380000E946C0061E371E084E492E00E94A309A2
:1003900064E670E080E090E00E94E80480919B01B8
:1003A000811122C0339B5FC00E94D60460939701E5
:1003B000709398018093990190939A0111E01093A2
:1003C0009B014FEF50E060E070E08FEF90E00E9403
:1003D0006C0010939C011092960164E371E084E438
:1003E00092E00E94A3093FC0339B29C00E94D6041B
:1003F00000919701109198012091990130919A01F3
:10040000601B710B820B930B68387341810591055A
:1004100050F14FEF50E06FEF70E080E090E00E940D
:100420006C008091900181111EC067E371E084E44B
:1004300092E00E94A30981E08093900114C040E003
:1004400050E06FEF70E08FEF90E00E946C00109230
:100450009C0110929B016AE371E084E492E00E94A7
:10046000A3091092900164E670E080E090E00E94A1
:10047000E804809106010E943805082F10E01093CF
:1004800093010093920101301105B1F461E0809174
:1004900008010E945C058091940190919501892B3F
:1004A00001F56DE371E084E492E00E94A3091093EA
:1004B00095010093940115C060E0809108010E94AD
:1004C0005C058091940190919501019751F460E44D
:1004D00071E084E492E00E94A309109295011092C9
:1004E000940164E670E080E090E00E94E80417C0A8
:1004F000D09EB001D19E700D11246D537E4FCE0160
:1005000008960E945C0ABE01685F7F4F8CEB91E009
:100510000E94410B811192CEFF24F394ABCE2E9614
:100520000FB6F894DEBF0FBECDBFDF91CF911F9104
:100530000F91FF90EF90DF90CF900895EF920F937F
:10054000E12C01E028E040E855E260E070E084E45E
:1005500092E00E94630765E271E08CEB91E00E94FB
:10056000660A10929C011092960110929D011092C1
:100570009B013D9A3C9A3A9A3B9840E050E06FEFDD
:1005800070E08FEF90E00E946C0061E080910801C4
:100590000E940A0560E0809106010F91EF900C9493
:1005A0000A05EF920F9363E471E083EC91E00E94FF
:1005B000280A68E471E08AEC91E00E94280A6DE460
:1005C00071E081ED91E00E94280A62E571E088ED1A
:1005D00091E00E94280A65E271E08CEB91E00E94B4
:1005E000280A93E0E92E04E02AE031E04DE051E0F2
:1005F00061E171E08EE991E00E9475040F91EF9046
:1006000008958CEB91E00E94B70988ED91E00E947B
:10061000B70981ED91E00E94B7098AEC91E00E9450
:10062000B70983EC91E00C94B709DC0118968D9121
:100630009C9119978617970769F019967C936E938A
:1006400018975C96ED91FC915D97309719F01A968A
:100650008C91099408954F925F926F927F92AF921E
:10066000BF92CF92DF92EF92FF920F931F93CF939F
:10067000DF93EC01A12CA8C00A2D10E0EC81FD81D4
:10068000E00FF11F60E080810E945C05B12C6801E1
:100690008EC0EB2CF12C8F81E881F981EC0DFD1DD2
:1006A000B89EE00DF11D11249A85808198133CC0FD
:1006B0000E94D6044E845F8468887988641975091D
:1006C000860997094A8C5B8C612C712C6415750521
:1006D0008605970550F0EA81FB81EE0DFF1D8081B4
:1006E0000E943805882309F498C00E94D6044E84DD
:1006F0005F84688879886419750986099709488C28
:10070000598C612C712C641575058605970508F4C4
:1007100093C0EA81FB81EB0DF11D80810E943805B9
:10072000813009F089C07FC00E94D6044E845F8466
:10073000688879886419750986099709488C598CE5
:10074000612C712C641575058605970578F1EA8191
:10075000FB81EE0DFF1D80810E943805811126C0AE
:10076000EC81FD81E00FF11F61E080810E945C055A
:100770002F812E9DC0012F9D900D1124E881F981BC
:10078000EC0DFD1DE80FF91FF0808E859F85A8896F
:10079000B9898A8B9B8BAC8BBD8B0E94D6046E87EC
:1007A0007F87888B998BF11015C005C0B3948E811B
:1007B000B81608F46ECFEC81FD81E00FF11F61E007
:1007C00080810E945C05A3948F81A81608F454CF01
:1007D00080E040C08B85F81239C00E94D6040A8997
:1007E0001B892C893D89601B710B820B930B0E8931
:1007F0001F8920E030E0061717072807390710F592
:1008000025C081E090E09D878C87FA8661E070E0EA
:10081000CE010E9415038A851DC063E070E0CE0101
:100820000E94150362CF62E070E0CE010E941503C2
:100830008A858B871A86BFCF88859985039709F0AB
:10084000B5CFB9CF8C859D850196DDCF8A85F8120D
:10085000D8CFBECFDF91CF911F910F91FF90EF9036
:10086000DF90CF90BF90AF907F906F905F904F9050
:100870000895FF920F931F93CF93DF93EC01F12C18
:1008800013C00F2D10E0EA81FB81E00FF11F60E043
:1008900080810E940A05EA81FB81E00FF11F61E07F
:1008A00080810E945C05F3948E81F81650F3F12C40
:1008B00013C00F2D10E0EC81FD81E00FF11F61E00E
:1008C00080810E940A05EC81FD81E00FF11F61E04B
:1008D00080810E945C05F3948F81F81650F3DF91BC
:1008E000CF911F910F91FF900895EF920F93FC010C
:1008F00053834283358324830683E7827183608335
:1009000016861786108A118A128A138A148A158A03
:100910008CE291E0978B868B82E390E0918F808FC1
:1009200088EE93E0938F828F158E148E1286138635
:100930001186108615861486CF010F91EF900C94C6
:1009400039048091E0019091E101A091E201B09120
:10095000E3013091DF01232F2D5F2D3720F4019625
:10096000A11DB11D05C0232F2A570296A11DB11D3F
:100970002093DF018093E0019093E101A093E201D5
:10098000B093E3018091E4019091E501A091E6012B
:10099000B091E7010196A11DB11D8093E4019093F0
:1009A000E501A093E601B093E70108950F931F932B
:1009B0008FB7F8940091E0011091E1012091E201DC
:1009C0003091E3018FBFB801C9011F910F910895C4
:1009D0008F929F92AF92BF92CF92DF92EF92FF924F
:1009E0006B017C010E94D6044B015C010E94D6047D
:1009F000681979098A099B096C157D058E059F0583
:100A0000A8F3FF90EF90DF90CF90BF90AF909F90B2
:100A10008F900895982F977021E030E0092E01C043
:100A2000220F0A94EAF786958695869581F08130A3
:100A300089F0823091F08330D1F412C0808120950A
:100A4000822302C08081822B80839FBF0895EAE2C7
:100A5000F0E008C0E7E2F0E005C0E4E2F0E002C048
:100A6000E1E2F0E09FB7F894662341F3EBCF0895FD
:100A7000982F977021E030E001C0220F9A95EAF795
:100A800086958695869539F0813041F0823049F01F
:100A9000833051F00895E9E2F0E008C0E6E2F0E0CA
:100AA00005C0E3E2F0E002C0E0E2F0E090819223D2
:100AB00081E009F480E00895982F977021E030E0FC
:100AC000092E01C0220F0A94EAF78695869586952D
:100AD00081F0813089F0823091F08330D1F412C0FE
:100AE00080812095822302C08081822B80839FBFDA
:100AF0000895EBE2F0E008C0E8E2F0E005C0E5E2CE
:100B0000F0E002C0E2E2F0E09FB7F894662341F320
:100B1000EBCF08950E94730B0E949E020E948500F5
:100B2000FDCFFC0120893189C9010895DC0150966F
:100B30002D913C915197232B49F05496ED91FC91C6
:100B40005597E80FF91F268930E002C02FEF3FEFDD
:100B5000C9010895FC01118A108A158A148A138A22
:100B6000128A0895FC0124813581C9010895FC0190
:100B700024813581C9010895FC0180899189892BDF
:100B8000D1F03FB7F894808991890197918B808B40
:100B900084899589DF01A80FB91F56962C9101967B
:100BA000803291051CF4958B848B02C0158A148ABF
:100BB0003FBF30E002C02FEF3FEFC9010895EF9231
:100BC000FF921F93CF93DF931F92CDB7DEB77C01C7
:100BD000D701DA968D919C91DB974097C8F71FB7A4
:100BE000F894D696ED91FC91D7970190F081E02D85
:100BF000C701C6966983099569814097C8F4F701D2
:100C000082AD93AD019693AF82AF84AD95ADE80F01
:100C1000F91FE05CFF4F60830196D701DD969C933E
:100C20008E93DC97409724F0DD961C921E92DC9701
:100C3000F701EA5AFF4F0190F081E02D8081806238
:100C400080831FBF81E090E00F90DF91CF911F91D3
:100C5000FF90EF900895665F7F4F680F791FCB017B
:100C60000895665F7F4F680F791FCB010895665F17
:100C70007F4F680F791FCB010895665F7F4F680F24
:100C8000791FCB0108951F920F920FB60F92112476
:100C90002F938F939F93AF93BF93EF93FF93809185
:100CA0007E0290917F02892B21F1E0919E02F091CA
:100CB0009F0280917E0290917F02019790937F0224
:100CC00080937E028091820290918302DC01A6587B
:100CD000BD4F1A962C910196803191052CF490937A
:100CE00083028093820204C01092830210928202D7
:100CF000208380917E0290917F02892B31F4E091D4
:100D00009A02F0919B0288E98083FF91EF91BF9155
:100D1000AF919F918F912F910F900FBE0F901F90C9
:100D200018951F920F920FB60F9211242F938F9345
:100D30009F93AF93BF93EF93FF9380912202909183
:100D40002302892B21F1E0914202F091430280912C
:100D50002202909123020197909323028093220212
:100D60008091260290912702DC01A25EBD4F1A9667
:100D70002C910196803191052CF490932702809359
:100D8000260204C01092270210922602208380912E
:100D9000220290912302892B31F4E0913E02F091DE
:100DA0003F0288E98083FF91EF91BF91AF919F91BE
:100DB0008F912F910F900FBE0F901F901895FC01EF
:100DC000262F1382128248EE53E060E070E04483E5
:100DD0005583668377838BE591E0918380838BE6EF
:100DE00091E09587848780E290E097878687118AD3
:100DF000108A158A148A138A128A85E791E097ABC4
:100E000086AB80E190E091AF80AF13AE12AE17AE2B
:100E100016AE15AE14AE222321F0213009F052C0D7
:100E200028C0DF01A05BBF4F85EC90E08D939C93C1
:100E3000DF01AE5ABF4F84EC90E08D939C93DF01AD
:100E4000AC5ABF4F80EC90E08D939C93DF01AA5A7F
:100E5000BF4F81EC90E08D939C93DF01A85ABF4F68
:100E600082EC90E08D939C93E65AFF4F86EC90E0E5
:100E700027C0DF01A05BBF4F8DEC90E08D939C936A
:100E8000DF01AE5ABF4F8CEC90E08D939C93DF0155
:100E9000AC5ABF4F88EC90E08D939C93DF01AA5A27
:100EA000BF4F89EC90E08D939C93DF01A85ABF4F10
:100EB0008AEC90E08D939C93E65AFF4F8EEC90E085
:100EC0009183808308953F924F925F926F927F92B9
:100ED0008F929F92AF92BF92CF92DF92EF92FF924A
:100EE0000F931F93CF93DF93EC014A015B01122F05
:100EF0003E2C60E072E18AE790E0A50194010E9437
:100F0000A80E69017A0184E0C80ED11CE11CF11C15
:100F100083E0F694E794D794C7948A95D1F760E07C
:100F200074E284EF90E0A50194010E94A80E2901CB
:100F30003A0194E0490E511C611C711C93E07694B7
:100F40006794579447949A95D1F7A3019201442747
:100F5000552760E874E88EE190E00E94CA0E5901BE
:100F6000A818B908B7FE03C0B194A194B108A701AD
:100F700096014427552760E472E48FE090E00E94D8
:100F8000CA0E2819390937FF03C031952195310957
:100F9000FE01EC5AFF4F0190F081E02DA216B3063E
:100FA0003CF482E08083620181E0C81AD10804C069
:100FB000108291E0C91AD1081630C1F018F415302A
:100FC00099F405C0173029F0193071F404C080E09D
:100FD0000EC084E00CC0FE01EA5AFF4F0190F08180
:100FE000E02D80818460808386E001C082E0023051
:100FF00009F4886091E0391621F092E0391204C0BA
:1010000002C0806301C08062FE01E85AFF4F019078
:10101000F081E02D8083FE01E05BFF4F0190F081C5
:10102000E02DD082FE01EE5AFF4F0190F081E02DBD
:10103000C082CA5ADF4FE881F98188E98083DF9155
:10104000CF911F910F91FF90EF90DF90CF90BF90C5
:10105000AF909F908F907F906F905F904F903F9058
:1010600008950F931F93CF93DF931F92CDB7DEB7F1
:101070008C01DC01ED91FC910190F081E02D698300
:10108000099569818097D0F4F80184819581019652
:101090009583848386819781E80FF91F6287019683
:1010A0008032910534F4D80117969C938E9316974D
:1010B00003C0F8011782168281E001C080E00F9022
:1010C000DF91CF911F910F9108951F920F920FB64C
:1010D0000F9211242F933F934F935F936F937F93BE
:1010E0008F939F93AF93BF93EF93FF93E09142024F
:1010F000F0914302608184EF91E00E943108FF91FA
:10110000EF91BF91AF919F918F917F916F915F917F
:101110004F913F912F910F900FBE0F901F901895F8
:101120001F920F920FB60F9211242F933F934F935C
:101130005F936F937F938F939F93AF93BF93EF933F
:10114000FF93E0919E02F0919F02608180E592E022
:101150000E943108FF91EF91BF91AF919F918F91C4
:101160007F916F915F914F913F912F910F900FBEA3
:101170000F901F90189560E084E492E00E94DF06D3
:1011800061E088EE91E00C94DF061F93CF93DF932C
:10119000182FEB01209721F460E00E945C0540E0ED
:1011A000143079F1153029F11630E9F1173099F141
:1011B000133169F0143109F044C011C060E001C07E
:1011C00061E0812FDF91CF911F910C945C0560E06D
:1011D00084EE92E00E94480EAE0160E007C061E03C
:1011E00084EE92E00E94480EAE0161E084EE92E04F
:1011F00023C060E082EC92E00E94480EAE0160E005
:1012000007C061E082EC92E00E94480EAE0161E00E
:1012100082EC92E011C060E080EA92E00E94480E09
:10122000AE0160E007C061E080EA92E00E94480EF3
:10123000AE0161E080EA92E0DF91CF911F910C94C2
:10124000750EC038D10508F4B9CFBACFCF92DF926E
:10125000EF92FF920F931F93CF93DF936C01EB01FB
:101260007A01E60EF71E00E010E00BC06991D6018E
:10127000ED91FC910190F081E02DC6010995080FD8
:10128000191FCE15DF0591F7C801DF91CF911F918E
:101290000F91FF90EF90DF90CF9008956115710549
:1012A00081F0DB010D900020E9F7AD0141505109BB
:1012B000461B570BDC01ED91FC910280F381E02D80
:1012C000099480E090E00895DC01ED91FC9101909B
:1012D000F081E02D0994DC01ED91FC91DB01149685
:1012E0004D915C9115976D917C910280F381E02D79
:1012F00009940F931F93CF93DF93EC016DE00E944D
:1013000064098C016AE0CE010E9464099C01200FEF
:10131000311FC901DF91CF911F910F9108950F9354
:101320001F93CF93DF93EC010E946B098C01CE01D8
:101330000E9479099C01200F311FC901DF91CF91D3
:101340001F910F9108950F931F93CF93DF93EC019B
:101350000E944E098C01CE010E9479099801280F44
:10136000391FC901DF91CF911F910F910895FC01A1
:10137000808191810C94870FCF93DF93EC0188815A
:101380009981009711F00E94870F198218821D829F
:101390001C821B821A82DF91CF9108950F931F93B5
:1013A000CF93DF93EC018B016F5F7F4F8881998131
:1013B0000E942410009731F0998388831B830A834D
:1013C00081E001C080E0DF91CF911F910F910895DE
:1013D000CF93DF93EC0188819981892B31F08A8149
:1013E0009B818617970708F00CC0CE010E94CE099A
:1013F000882349F08C819D81892B19F4E881F9813A
:10140000108281E001C080E0DF91CF910895EF92DA
:10141000FF920F931F93CF93DF93EC017B018A011F
:10142000BA010E94E809811104C0CE010E94BC09E2
:1014300007C01D830C83B701888199810E94021126
:10144000CE01DF91CF911F910F91FF90EF90089502
:10145000DC0111961C921E9213961C921E921297FA
:1014600015961C921E92149716961C926115710582
:1014700059F0DB010D900020E9F7AD014150510911
:10148000461B570B0C94070A0895CF93DF93EC018A
:10149000FB018617970761F0608171816115710505
:1014A00029F0448155810E94070A02C00E94BC09AC
:1014B000CE01DF91CF910895FC0111821082138239
:1014C00012821582148216820C94450ACF93DF9300
:1014D000D82FC92F6115710561F0DB010D90002037
:1014E000E9F7AD0141505109461B570B0E94070A0D
:1014F00002C00E94BC098D2F9C2FDF91CF910895CF
:101500000F931F93CF93DF93CDB7DEB729970FB615
:10151000F894DEBF0FBECDBF8C01862FF80111827B
:1015200010821382128215821482168250E0BE014C
:101530006F5F7F4F90E00E940911BE016F5F7F4F88
:10154000C8010E94660A29960FB6F894DEBF0FBE46
:10155000CDBFDF91CF911F910F910895CF93DF936E
:1015600000D0CDB7DEB7FC01118210821382128247
:1015700015821482168269831A82BE016F5F7F4FC3
:101580000E94660A0F900F90DF91CF910895EF921D
:10159000FF920F931F93CF93DF93EC017B010C819C
:1015A0001D816115710511F480E016C041155105CA
:1015B00091F0040F151FB8010E94E8098823A1F3D8
:1015C000288139818C819D81B701820F931F0E94F0
:1015D00002111D830C8381E0DF91CF911F910F9148
:1015E000FF90EF900895FB014481558160817181E6
:1015F0000C94C70ACF93DF93D82FC92FFB014481E6
:101600005581608171810E94C70A811104C08D2FAC
:101610009C2F0E94BC098D2F9C2FDF91CF910895A4
:10162000CF93DF93DC01ED91FC91EB01A881B981AF
:10163000309711F01097C9F4109759F0EB012C81F5
:101640003D81232B31F02C9130E0319521953109EA
:1016500014C0309781F0DC0114968D919C91159700
:10166000892B49F0208130E008C0BD01CF01DF9116
:10167000CF910C94F91020E030E0C901DF91CF91B7
:101680000895FC0144815581FB0124813581421775
:10169000530729F40E94100B21E0892B09F020E068
:1016A000822F0895FC0184819581DB0114964D9170
:1016B0005C91159784179507A0F020813181211541
:1016C000310579F06D917C916115710551F0841BA4
:1016D000950B820F931F0E94F9109C0181E0232B30
:1016E00009F080E0089563E084EE92E00E94320EFB
:1016F00021E041EA54E060E084EE92E00E94080EAE
:1017000064E084EE92E00E94350D61E082EC92E0AC
:101710000E94320E64E082EC92E00E94350D61E09E
:1017200080EA92E00E94320E64E080EA92E00E9439
:10173000350D789408951F920F920FB60F921124D1
:101740002F933F934F935F936F937F938F939F93C9
:10175000AF93BF93EF93FF93E091FE02F091FF02EE
:10176000309709F00995FF91EF91BF91AF919F914B
:101770008F917F916F915F914F913F912F910F903A
:101780000FBE0F901F9018951F920F920FB60F92D9
:1017900011242F933F934F935F936F937F938F9376
:1017A0009F93AF93BF93EF93FF93E0910003F0916A
:1017B0000103309709F00995FF91EF91BF91AF9127
:1017C0009F918F917F916F915F914F913F912F9159
:1017D0000F900FBE0F901F9018951F920F920FB68B
:1017E0000F9211242F933F934F935F936F937F93A7
:1017F0008F939F93AF93BF93EF93FF93E091FC027E
:10180000F091FD02309709F00995FF91EF91BF919A
:10181000AF919F918F917F916F915F914F913F9188
:101820002F910F900FBE0F901F9018951F920F923F
:101830000FB60F9211242F933F934F935F936F93A3
:101840007F938F939F93AF93BF93EF93FF93E09119
:10185000BA02F091BB02309709F00995FF91EF9120
:10186000BF91AF919F918F917F916F915F914F91B8
:101870003F912F910F900FBE0F901F9018951F92C0
:101880000F920FB60F9211242F933F934F935F93B4
:101890006F937F938F939F93AF93BF93EF93FF9338
:1018A000E091BC02F091BD02309709F00995FF91DB
:1018B000EF91BF91AF919F918F917F916F915F91C8
:1018C0004F913F912F910F900FBE0F901F90189541
:1018D0001F920F920FB60F9211242F933F934F93A5
:1018E0005F936F937F938F939F93AF93BF93EF9388
:1018F000FF93E091B802F091B902309709F0099591
:10190000FF91EF91BF91AF919F918F917F916F91D7
:101910005F914F913F912F910F900FBE0F901F90AD
:1019200018951F920F920FB60F9211242F933F9389
:101930004F935F936F937F938F939F93AF93BF93D7
:10194000EF93FF93E091DC02F091DD02309709F014
:101950000995FF91EF91BF91AF919F918F917F91E9
:101960006F915F914F913F912F910F900FBE0F900C
:101970001F9018951F920F920FB60F9211242F935C
:101980003F934F935F936F937F938F939F93AF9307
:10199000BF93EF93FF93E091DE02F091DF02309767
:1019A00009F00995FF91EF91BF91AF919F918F91B0
:1019B0007F916F915F914F913F912F910F900FBE4B
:1019C0000F901F9018951F920F920FB60F9211242F
:1019D0002F933F934F935F936F937F938F939F9337
:1019E000AF93BF93EF93FF93E091DA02F091DB02A4
:1019F000309709F00995FF91EF91BF91AF919F91B9
:101A00008F917F916F915F914F913F912F910F90A7
:101A10000FBE0F901F9018951F920F920FB60F9246
:101A200011242F933F934F935F936F937F938F93E3
:101A30009F93AF93BF93EF93FF93E091E202F091F6
:101A4000E302309709F00995FF91EF91BF91AF91B3
:101A50009F918F917F916F915F914F913F912F91C6
:101A60000F900FBE0F901F901895DC012C916150C4
:101A7000223039F4673068F4E62FF0E0E558FE4F85
:101A800006C0693030F4E62FF0E0EE57FE4F2081BB
:101A900001C020E0DC011A96ED91FC911B9780813A
:101AA000887F822B80830895CF93DF93EC01688336
:101AB000613011F120F0623009F06CC048C01B8227
:101AC0001A8286E490E09D838C838EE690E09F836B
:101AD0008E8384E490E09987888785E490E09B87F3
:101AE0008A871D861C8687E490E09F878E87198AE7
:101AF000188A88E490E022C08FE690E09F838E836E
:101B000085E890E09B838A8384E890E09D838C83C2
:101B100080E890E09987888781E890E09B878A87B2
:101B200089E890E09D878C8788E890E09F878E8782
:101B30008BE890E0998B888B8AE890E09B8B8A8B6E
:101B40001D8A1C8A1F8A1E8A82E0898323C01B8209
:101B50001A8282EB90E09D838C8380E790E09F83E4
:101B60008E8380EB90E09987888781EB90E09B875C
:101B70008A871D861C8683EB90E09F878E87198A53
:101B8000188A84EB90E09B8B8A8B1D8A1C8A1F8AA3
:101B90001E8A698360E0CE010E94350DEA81FB81D7
:101BA000309709F01082EC81FD811082198E188E19
:101BB0001B8E1A8E1D8E1C8E1F8E1E8E19A218A2B1
:101BC000DF91CF91089551E0411101C050E065309F
:101BD000F0F4E62FF0E0E557FE4F408147FD17C0D7
:101BE000DC011696ED91FC911797808121E030E0A1
:101BF000042E01C0220F0A94EAF720952823852F8E
:101C0000042E01C0880F0A94EAF7282B2083089538
:101C1000623099F028F4662341F06130C9F409C0BC
:101C2000633079F06430A1F410C0FC01518F408F13
:101C30000FC0FC01538F428F0BC0FC01558F448FA6
:101C400007C0FC01578F468F03C0FC0151A340A37E
:101C5000452B11F440E003C0222319F041E00C941D
:101C6000E30D0895DC011896ED91FC9119973081F0
:101C7000262F23703C7F232B20831A96ED91FC9115
:101C80001B9780816C70660F877E682B6083089538
:101C9000FC018181681740F59081992311F0923001
:101CA00011F4813049F0662329F0613029F0623067
:101CB00031F404C026E003C024E001C022E0008427
:101CC000F185E02D308183E090E0022E01C0880F85
:101CD0000A94EAF7809583234370022E01C0440FD3
:101CE0000A94EAF7842B80830895FC0181816817A8
:101CF000F8F4611109C0A485B585109709F05C93CB
:101D00000684F785E02D13C0613049F4A089B189BC
:101D1000109709F05C930288F389E02D08C06230C7
:101D200039F4A489B5895C930688F789E02D40834E
:101D3000089560E084EE92E00E94540D61E082EC30
:101D400092E00E94540D62E080EA92E00C94540DFF
:101D5000A1E21A2EAA1BBB1BFD010DC0AA1FBB1FAF
:101D6000EE1FFF1FA217B307E407F50720F0A21B21
:101D7000B30BE40BF50B661F771F881F991F1A948E
:101D800069F760957095809590959B01AC01BD01B8
:101D9000CF010895052E97FB16F4009407D057FD48
:101DA0000DD00E94A80E07FC09D07EF49095809576
:101DB000709561957F4F8F4F9F4F08955095409537
:101DC000309521953F4F4F4F5F4F0895EE0FFF1F06
:101DD0000590F491E02D09940F931F93CF93DF9317
:101DE0008230910510F482E090E0E0910803F091D8
:101DF000090320E030E0C0E0D0E023C04081518101
:101E000048175907A8F04817590761F48281938150
:101E1000209719F09B838A832EC0909309038093A7
:101E2000080329C02115310529F04217530710F086
:101E3000A90102C0BE01DF0102811381EF019A01F5
:101E4000F8013097D9F62115310509F1281B390B16
:101E50002430310590F412968D919C911397611561
:101E6000710521F0FB019383828304C090930903E1
:101E700080930803FD01329644C0FD01E20FF31F79
:101E800081939193225031092D933C933AC0209134
:101E9000060330910703232B41F420910201309176
:101EA0000301309307032093060320910001309132
:101EB00001012115310541F42DB73EB740910401D0
:101EC00050910501241B350BE0910603F0910703A7
:101ED000E217F307A0F42E1B3F0B2817390778F001
:101EE000AC014E5F5F4F2417350748F04E0F5F1F60
:101EF00050930703409306038193919302C0E0E05F
:101F0000F0E0CF01DF91CF911F910F910895EF92F3
:101F1000FF920F931F93CF93DF93009709F48FC025
:101F2000DC01129713961C921E921297E090080300
:101F3000F0900903E114F10489F42D913C9111977B
:101F4000280F391F8091060390910703821793078A
:101F500089F5B0930703A093060371C0E70120E061
:101F600030E001C0EA01CA17DB0738F44A815B811F
:101F70009E0141155105B1F722C0BC0162507109A3
:101F8000FB01D383C28300811181AC01400F511F3B
:101F90004C175D0761F448815981400F511F4E5F16
:101FA0005F4F518340834A815B8153834283211574
:101FB000310529F4B0930903A093080340C0F90147
:101FC000B383A283E90169917991C60FD71FAC173A
:101FD000BD0779F4DC015E914E91460F571F4E5FAD
:101FE0005F4F5183408312968D919C9113979383F9
:101FF0008283A0E0B0E002C0D7017C01F7018281BA
:1020000093810097C9F7C701029620813181820F21
:10201000931F20910603309107032817390779F49D
:10202000109729F4109209031092080304C0139624
:102030001C921E921297F0920703E0920603CDB70E
:10204000DEB7E6E00C946B11A0E0B0E0EAE2F0E16C
:102050000C944911EC01009729F4CB010E94EC0E7D
:10206000EC01B8C0DC01A60FB71FFC013297AE1718
:10207000BF0718F4C0E0D0E0ADC0008111810617A1
:102080001707B0F00530110508F4A4C0C801049783
:102090008617970708F49EC002501109061B170BFC
:1020A0000D931D9371836083CD010E94870F92C0B1
:1020B0007B01E01AF10A5C01A00EB11EE091080359
:1020C000F0910903812C912C80E090E04CC0EA153E
:1020D000FB05F1F5408151816A0122E0C20ED11C5D
:1020E000CE14DF04A8F19A012E193F097901690184
:1020F00032E0C30ED11C2EEFA22EBB24BA94AC0E3C
:10210000BD1E25E0C216D10478F04281538113969A
:102110005C934E9312971196FC92EE92F5017183A7
:1021200060833A2F2B2F09C00E5F1F4F040F151F1E
:10213000D5010D931C9332812381009721F0FC017E
:102140003283238347C0309308032093090342C09E
:10215000808191818816990608F44C01528143814F
:10216000CF01E52FF42F309709F0B1CF809106030E
:10217000909107038A159B05F1F486169706D8F40B
:102180008091000190910101009741F48DB79EB7B5
:102190002091040130910501821B930BA817B90708
:1021A00008F068CFB0930703A0930603FE013297AF
:1021B000718360830FC0CB010E94EC0E7C010097FD
:1021C00009F458CFA801BE010E94F010CE010E9470
:1021D000870FE701CE01CDB7DEB7ECE00C946511B7
:1021E000FB01DC0102C001900D9241505040D8F734
:1021F0000895FB01DC018D91019080190110D9F344
:10220000990B0895FB01DC0101900D920020E1F78C
:102210000895FB019F01423074F0453264F4642F4D
:1022200077270E942F11805D8A330CF0895D81939E
:10223000CB010097A1F71082C9010C941F11DC019A
:10224000FC01672F71917723E1F7329704C07C91ED
:102250006D9370836291AE17BF07C8F30895AA1BF0
:10226000BB1B51E107C0AA1FBB1FA617B70710F081
:10227000A61BB70B881F991F5A95A9F780959095B3
:10228000BC01CD0108952F923F924F925F926F92C1
:102290007F928F929F92AF92BF92CF92DF92EF92F6
:1022A000FF920F931F93CF93DF93CDB7DEB7CA1B77
:1022B000DB0B0FB6F894DEBF0FBECDBF09942A88A2
:1022C000398848885F846E847D848C849B84AA844A
:1022D000B984C884DF80EE80FD800C811B81AA81D7
:1022E000B981CE0FD11D0FB6F894DEBF0FBECDBFA2
:1022F000ED01089510E0C2E8D0E004C0FE010E94A4
:0E230000E80E2296C438D107C9F7F894FFCF33
:10230E0000000A03200002000E000504030908075E
:10231E00063132333435363738392A302304002A21
:10232E000044300023004E30004431004E00533143
:10233E00005330005031005032005030004D31000B
:10234E004D300031323334003131313100323436D8
:10235E003800303831310000000000DF05260991C9
:10236E00059605BC05AA0500000000B70537063D19
:10237E000600000000B2052B06310601020304051B
:10238E00060701020003000405060700010203050B
:00000001FF
